{
  "_format": "hh-sol-artifact-1",
  "contractName": "GameLogic",
  "sourceName": "contracts/GameLogic.sol",
  "abi": [
    {
      "inputs": [
        {
          "internalType": "address",
          "name": "_red",
          "type": "address"
        },
        {
          "internalType": "address",
          "name": "_blue",
          "type": "address"
        },
        {
          "internalType": "address",
          "name": "_green",
          "type": "address"
        },
        {
          "internalType": "address",
          "name": "_yellow",
          "type": "address"
        }
      ],
      "stateMutability": "nonpayable",
      "type": "constructor"
    },
    {
      "anonymous": false,
      "inputs": [
        {
          "indexed": false,
          "internalType": "address",
          "name": "voter",
          "type": "address"
        },
        {
          "indexed": false,
          "internalType": "uint256",
          "name": "price",
          "type": "uint256"
        },
        {
          "indexed": false,
          "internalType": "uint256",
          "name": "roundNumber",
          "type": "uint256"
        },
        {
          "indexed": false,
          "internalType": "uint256",
          "name": "color",
          "type": "uint256"
        }
      ],
      "name": "Voted",
      "type": "event"
    },
    {
      "inputs": [],
      "name": "blue",
      "outputs": [
        {
          "internalType": "uint256",
          "name": "mintPrice",
          "type": "uint256"
        },
        {
          "internalType": "uint256",
          "name": "oldSupply",
          "type": "uint256"
        },
        {
          "internalType": "uint256",
          "name": "color",
          "type": "uint256"
        }
      ],
      "stateMutability": "view",
      "type": "function"
    },
    {
      "inputs": [],
      "name": "blueContract",
      "outputs": [
        {
          "internalType": "contract IBlue",
          "name": "",
          "type": "address"
        }
      ],
      "stateMutability": "view",
      "type": "function"
    },
    {
      "inputs": [],
      "name": "claimReward",
      "outputs": [],
      "stateMutability": "payable",
      "type": "function"
    },
    {
      "inputs": [
        {
          "internalType": "uint256",
          "name": "",
          "type": "uint256"
        }
      ],
      "name": "colorToNFT",
      "outputs": [
        {
          "internalType": "uint256",
          "name": "mintPrice",
          "type": "uint256"
        },
        {
          "internalType": "uint256",
          "name": "oldSupply",
          "type": "uint256"
        },
        {
          "internalType": "uint256",
          "name": "color",
          "type": "uint256"
        }
      ],
      "stateMutability": "view",
      "type": "function"
    },
    {
      "inputs": [],
      "name": "currentRoundPool",
      "outputs": [
        {
          "internalType": "uint256",
          "name": "",
          "type": "uint256"
        }
      ],
      "stateMutability": "view",
      "type": "function"
    },
    {
      "inputs": [],
      "name": "green",
      "outputs": [
        {
          "internalType": "uint256",
          "name": "mintPrice",
          "type": "uint256"
        },
        {
          "internalType": "uint256",
          "name": "oldSupply",
          "type": "uint256"
        },
        {
          "internalType": "uint256",
          "name": "color",
          "type": "uint256"
        }
      ],
      "stateMutability": "view",
      "type": "function"
    },
    {
      "inputs": [],
      "name": "greenContract",
      "outputs": [
        {
          "internalType": "contract IGreen",
          "name": "",
          "type": "address"
        }
      ],
      "stateMutability": "view",
      "type": "function"
    },
    {
      "inputs": [],
      "name": "mintWinner",
      "outputs": [],
      "stateMutability": "payable",
      "type": "function"
    },
    {
      "inputs": [
        {
          "internalType": "address",
          "name": "dest",
          "type": "address"
        }
      ],
      "name": "payments",
      "outputs": [
        {
          "internalType": "uint256",
          "name": "",
          "type": "uint256"
        }
      ],
      "stateMutability": "view",
      "type": "function"
    },
    {
      "inputs": [],
      "name": "red",
      "outputs": [
        {
          "internalType": "uint256",
          "name": "mintPrice",
          "type": "uint256"
        },
        {
          "internalType": "uint256",
          "name": "oldSupply",
          "type": "uint256"
        },
        {
          "internalType": "uint256",
          "name": "color",
          "type": "uint256"
        }
      ],
      "stateMutability": "view",
      "type": "function"
    },
    {
      "inputs": [],
      "name": "redContract",
      "outputs": [
        {
          "internalType": "contract IRed",
          "name": "",
          "type": "address"
        }
      ],
      "stateMutability": "view",
      "type": "function"
    },
    {
      "inputs": [],
      "name": "redeemAll",
      "outputs": [],
      "stateMutability": "nonpayable",
      "type": "function"
    },
    {
      "inputs": [],
      "name": "reset",
      "outputs": [],
      "stateMutability": "nonpayable",
      "type": "function"
    },
    {
      "inputs": [],
      "name": "resetTime",
      "outputs": [
        {
          "internalType": "uint256",
          "name": "",
          "type": "uint256"
        }
      ],
      "stateMutability": "view",
      "type": "function"
    },
    {
      "inputs": [],
      "name": "roundNumber",
      "outputs": [
        {
          "internalType": "uint256",
          "name": "",
          "type": "uint256"
        }
      ],
      "stateMutability": "view",
      "type": "function"
    },
    {
      "inputs": [
        {
          "internalType": "address",
          "name": "",
          "type": "address"
        },
        {
          "internalType": "uint256",
          "name": "",
          "type": "uint256"
        }
      ],
      "name": "roundToVoter",
      "outputs": [
        {
          "internalType": "bool",
          "name": "voted",
          "type": "bool"
        },
        {
          "internalType": "uint256",
          "name": "color",
          "type": "uint256"
        },
        {
          "internalType": "uint256",
          "name": "mintPrice",
          "type": "uint256"
        },
        {
          "internalType": "bool",
          "name": "minted",
          "type": "bool"
        },
        {
          "internalType": "bool",
          "name": "claimedReward",
          "type": "bool"
        }
      ],
      "stateMutability": "view",
      "type": "function"
    },
    {
      "inputs": [],
      "name": "sidePotPool",
      "outputs": [
        {
          "internalType": "address",
          "name": "",
          "type": "address"
        }
      ],
      "stateMutability": "view",
      "type": "function"
    },
    {
      "inputs": [
        {
          "internalType": "uint256",
          "name": "_color",
          "type": "uint256"
        }
      ],
      "name": "voteForColor",
      "outputs": [],
      "stateMutability": "payable",
      "type": "function"
    },
    {
      "inputs": [],
      "name": "votersInRound",
      "outputs": [
        {
          "internalType": "uint256",
          "name": "",
          "type": "uint256"
        }
      ],
      "stateMutability": "view",
      "type": "function"
    },
    {
      "inputs": [],
      "name": "winningColor",
      "outputs": [
        {
          "internalType": "uint256",
          "name": "",
          "type": "uint256"
        }
      ],
      "stateMutability": "view",
      "type": "function"
    },
    {
      "inputs": [],
      "name": "winningRound",
      "outputs": [
        {
          "internalType": "uint256",
          "name": "",
          "type": "uint256"
        }
      ],
      "stateMutability": "view",
      "type": "function"
    },
    {
      "inputs": [
        {
          "internalType": "address payable",
          "name": "payee",
          "type": "address"
        }
      ],
      "name": "withdrawPayments",
      "outputs": [],
      "stateMutability": "nonpayable",
      "type": "function"
    },
    {
      "inputs": [],
      "name": "yellow",
      "outputs": [
        {
          "internalType": "uint256",
          "name": "mintPrice",
          "type": "uint256"
        },
        {
          "internalType": "uint256",
          "name": "oldSupply",
          "type": "uint256"
        },
        {
          "internalType": "uint256",
          "name": "color",
          "type": "uint256"
        }
      ],
      "stateMutability": "view",
      "type": "function"
    },
    {
      "inputs": [],
      "name": "yellowContract",
      "outputs": [
        {
          "internalType": "contract IYellow",
          "name": "",
          "type": "address"
        }
      ],
      "stateMutability": "view",
      "type": "function"
    }
  ],
  "bytecode": "0x60a060405260018055604051806060016040528067016345785d8a00008152602001600081526020016001815250600a6000820151816000015560208201518160010155604082015181600201555050604051806060016040528067016345785d8a00008152602001600081526020016002815250600d6000820151816000015560208201518160010155604082015181600201555050604051806060016040528067016345785d8a0000815260200160008152602001600381525060106000820151816000015560208201518160010155604082015181600201555050604051806060016040528067016345785d8a00008152602001600081526020016004815250601360008201518160000155602082015181600101556040820151816002015550503480156200013157600080fd5b5060405162003756380380620037568339818101604052810190620001579190620003d0565b6040516200016590620003ab565b604051809103906000f08015801562000182573d6000803e3d6000fd5b5073ffffffffffffffffffffffffffffffffffffffff1660808173ffffffffffffffffffffffffffffffffffffffff1660601b81525050600160008190555083601660006101000a81548173ffffffffffffffffffffffffffffffffffffffff021916908373ffffffffffffffffffffffffffffffffffffffff16021790555082601760006101000a81548173ffffffffffffffffffffffffffffffffffffffff021916908373ffffffffffffffffffffffffffffffffffffffff16021790555081601860006101000a81548173ffffffffffffffffffffffffffffffffffffffff021916908373ffffffffffffffffffffffffffffffffffffffff16021790555080601960006101000a81548173ffffffffffffffffffffffffffffffffffffffff021916908373ffffffffffffffffffffffffffffffffffffffff160217905550600a6008600060018152602001908152602001600020600082015481600001556001820154816001015560028201548160020155905050600d60086000600281526020019081526020016000206000820154816000015560018201548160010155600282015481600201559050506010600860006003815260200190815260200160002060008201548160000155600182015481600101556002820154816002015590505060136008600060048152602001908152602001600020600082015481600001556001820154816001015560028201548160020155905050505050506200048a565b610d098062002a4d83390190565b600081519050620003ca8162000470565b92915050565b60008060008060808587031215620003e757600080fd5b6000620003f787828801620003b9565b94505060206200040a87828801620003b9565b93505060406200041d87828801620003b9565b92505060606200043087828801620003b9565b91505092959194509250565b6000620004498262000450565b9050919050565b600073ffffffffffffffffffffffffffffffffffffffff82169050919050565b6200047b816200043c565b81146200048757600080fd5b50565b60805160601c612596620004b76000396000818161056c0152818161186c0152611a1401526125966000f3fe60806040526004361061014b5760003560e01c8063b345bdfc116100b6578063d826f88f1161006f578063d826f88f1461041d578063e2982c2114610434578063ed18f0a714610471578063f05f4b001461049e578063f2f1e132146104c9578063f5fcffb1146104f65761014b565b8063b345bdfc14610335578063b88a802f14610374578063b9ebc2d01461037e578063bb9fca17146103a9578063be9faf13146103d4578063c60deabd146104015761014b565b80634c914658116101085780634c914658146102545780634e2786fb1461027f5780634f3516c7146102aa5780635fdf643d146102d557806365a114f1146103005780639787fc7f1461032b5761014b565b80631dc5ab96146101505780632930cf241461017b5780632f4350c2146101a857806331b3eb94146101bf5780633609fc9f146101e85780634949787b14610229575b600080fd5b34801561015c57600080fd5b50610165610521565b6040516101729190611deb565b60405180910390f35b34801561018757600080fd5b50610190610547565b60405161019f93929190612090565b60405180910390f35b3480156101b457600080fd5b506101bd61055f565b005b3480156101cb57600080fd5b506101e660048036038101906101e19190611b48565b61056a565b005b3480156101f457600080fd5b5061020f600480360381019061020a9190611b71565b6105f8565b604051610220959493929190611e66565b60405180910390f35b34801561023557600080fd5b5061023e610662565b60405161024b9190612075565b60405180910390f35b34801561026057600080fd5b50610269610668565b6040516102769190612075565b60405180910390f35b34801561028b57600080fd5b5061029461066e565b6040516102a19190612075565b60405180910390f35b3480156102b657600080fd5b506102bf610674565b6040516102cc9190612075565b60405180910390f35b3480156102e157600080fd5b506102ea61067a565b6040516102f79190611eef565b60405180910390f35b34801561030c57600080fd5b506103156106a0565b6040516103229190612075565b60405180910390f35b6103336106a6565b005b34801561034157600080fd5b5061035c60048036038101906103579190611bad565b610d5d565b60405161036b93929190612090565b60405180910390f35b61037c610d87565b005b34801561038a57600080fd5b50610393611270565b6040516103a09190611eb9565b60405180910390f35b3480156103b557600080fd5b506103be611296565b6040516103cb9190611ed4565b60405180910390f35b3480156103e057600080fd5b506103e96112bc565b6040516103f893929190612090565b60405180910390f35b61041b60048036038101906104169190611bad565b6112d4565b005b34801561042957600080fd5b50610432611795565b005b34801561044057600080fd5b5061045b60048036038101906104569190611b1f565b611868565b6040516104689190612075565b60405180910390f35b34801561047d57600080fd5b5061048661191a565b60405161049593929190612090565b60405180910390f35b3480156104aa57600080fd5b506104b3611932565b6040516104c09190612075565b60405180910390f35b3480156104d557600080fd5b506104de611938565b6040516104ed93929190612090565b60405180910390f35b34801561050257600080fd5b5061050b611950565b6040516105189190611f0a565b60405180910390f35b600560009054906101000a900473ffffffffffffffffffffffffffffffffffffffff1681565b600a8060000154908060010154908060020154905083565b6105683361056a565b565b7f000000000000000000000000000000000000000000000000000000000000000073ffffffffffffffffffffffffffffffffffffffff166351cff8d9826040518263ffffffff1660e01b81526004016105c39190611e06565b600060405180830381600087803b1580156105dd57600080fd5b505af11580156105f1573d6000803e3d6000fd5b5050505050565b6009602052816000526040600020602052806000526040600020600091509150508060000160009054906101000a900460ff16908060010154908060020154908060030160009054906101000a900460ff16908060030160019054906101000a900460ff16905085565b60025481565b60045481565b60015481565b60075481565b601660009054906101000a900473ffffffffffffffffffffffffffffffffffffffff1681565b60065481565b600260005414156106ec576040517f08c379a00000000000000000000000000000000000000000000000000000000081526004016106e390612015565b60405180910390fd5b600260008190555060011515600960003373ffffffffffffffffffffffffffffffffffffffff1673ffffffffffffffffffffffffffffffffffffffff1681526020019081526020016000206000600354815260200190815260200160002060000160009054906101000a900460ff1615151461079d576040517f08c379a000000000000000000000000000000000000000000000000000000000815260040161079490611ff5565b60405180910390fd5b600254600960003373ffffffffffffffffffffffffffffffffffffffff1673ffffffffffffffffffffffffffffffffffffffff168152602001908152602001600020600060035481526020019081526020016000206001015414610836576040517f08c379a000000000000000000000000000000000000000000000000000000000815260040161082d90611f75565b60405180910390fd5b60001515600960003373ffffffffffffffffffffffffffffffffffffffff1673ffffffffffffffffffffffffffffffffffffffff1681526020019081526020016000206000600354815260200190815260200160002060030160019054906101000a900460ff161515146108df576040517f08c379a00000000000000000000000000000000000000000000000000000000081526004016108d690611f55565b60405180910390fd5b60001515600960003373ffffffffffffffffffffffffffffffffffffffff1673ffffffffffffffffffffffffffffffffffffffff1681526020019081526020016000206000600354815260200190815260200160002060030160009054906101000a900460ff16151514610988576040517f08c379a000000000000000000000000000000000000000000000000000000000815260040161097f90612055565b60405180910390fd5b6001600960003373ffffffffffffffffffffffffffffffffffffffff1673ffffffffffffffffffffffffffffffffffffffff168152602001908152602001600020600060035481526020019081526020016000206001015414610c57576002600960003373ffffffffffffffffffffffffffffffffffffffff1673ffffffffffffffffffffffffffffffffffffffff168152602001908152602001600020600060035481526020019081526020016000206001015414610bc4576003600960003373ffffffffffffffffffffffffffffffffffffffff1673ffffffffffffffffffffffffffffffffffffffff168152602001908152602001600020600060035481526020019081526020016000206001015414610b3157601960009054906101000a900473ffffffffffffffffffffffffffffffffffffffff1673ffffffffffffffffffffffffffffffffffffffff16634894d393336040518263ffffffff1660e01b8152600401610afa9190611deb565b600060405180830381600087803b158015610b1457600080fd5b505af1158015610b28573d6000803e3d6000fd5b50505050610bbf565b601860009054906101000a900473ffffffffffffffffffffffffffffffffffffffff1673ffffffffffffffffffffffffffffffffffffffff16634894d393336040518263ffffffff1660e01b8152600401610b8c9190611deb565b600060405180830381600087803b158015610ba657600080fd5b505af1158015610bba573d6000803e3d6000fd5b505050505b610c52565b601760009054906101000a900473ffffffffffffffffffffffffffffffffffffffff1673ffffffffffffffffffffffffffffffffffffffff16634894d393336040518263ffffffff1660e01b8152600401610c1f9190611deb565b600060405180830381600087803b158015610c3957600080fd5b505af1158015610c4d573d6000803e3d6000fd5b505050505b610ce5565b601660009054906101000a900473ffffffffffffffffffffffffffffffffffffffff1673ffffffffffffffffffffffffffffffffffffffff16634894d393336040518263ffffffff1660e01b8152600401610cb29190611deb565b600060405180830381600087803b158015610ccc57600080fd5b505af1158015610ce0573d6000803e3d6000fd5b505050505b6001600960003373ffffffffffffffffffffffffffffffffffffffff1673ffffffffffffffffffffffffffffffffffffffff1681526020019081526020016000206000600354815260200190815260200160002060030160006101000a81548160ff0219169083151502179055506001600081905550565b60086020528060005260406000206000915090508060000154908060010154908060020154905083565b60026000541415610dcd576040517f08c379a0000000000000000000000000000000000000000000000000000000008152600401610dc490612015565b60405180910390fd5b600260008190555060011515600960003373ffffffffffffffffffffffffffffffffffffffff1673ffffffffffffffffffffffffffffffffffffffff1681526020019081526020016000206000600354815260200190815260200160002060000160009054906101000a900460ff16151514610e7e576040517f08c379a0000000000000000000000000000000000000000000000000000000008152600401610e7590611ff5565b60405180910390fd5b600254600960003373ffffffffffffffffffffffffffffffffffffffff1673ffffffffffffffffffffffffffffffffffffffff168152602001908152602001600020600060035481526020019081526020016000206001015414610f17576040517f08c379a0000000000000000000000000000000000000000000000000000000008152600401610f0e90611f75565b60405180910390fd5b60001515600960003373ffffffffffffffffffffffffffffffffffffffff1673ffffffffffffffffffffffffffffffffffffffff1681526020019081526020016000206000600354815260200190815260200160002060030160019054906101000a900460ff16151514610fc0576040517f08c379a0000000000000000000000000000000000000000000000000000000008152600401610fb790611f55565b60405180910390fd5b60001515600960003373ffffffffffffffffffffffffffffffffffffffff1673ffffffffffffffffffffffffffffffffffffffff1681526020019081526020016000206000600354815260200190815260200160002060030160009054906101000a900460ff16151514611069576040517f08c379a000000000000000000000000000000000000000000000000000000000815260040161106090612055565b60405180910390fd5b6110aa6040518060400160405280601181526020017f63757272656e74526f756e64506f6f6c20000000000000000000000000000000815250600454611976565b6110eb6040518060400160405280600e81526020017f766f74657273496e526f756e6420000000000000000000000000000000000000815250600754611976565b61115d6040518060400160405280600781526020017f616d6f756e742000000000000000000000000000000000000000000000000000815250600a806007546004546111379190612139565b611141919061216a565b60045461114e91906121c4565b6111589190612139565b611976565b61119a33600a806007546004546111749190612139565b61117e919061216a565b60045461118b91906121c4565b6111959190612139565b611a12565b6111a261055f565b6111f86040518060400160405280601781526020017f62616c616e63652061667465722072656465656d416c6c0000000000000000008152503373ffffffffffffffffffffffffffffffffffffffff1631611976565b6001600960003373ffffffffffffffffffffffffffffffffffffffff1673ffffffffffffffffffffffffffffffffffffffff1681526020019081526020016000206000600354815260200190815260200160002060030160016101000a81548160ff0219169083151502179055506001600081905550565b601760009054906101000a900473ffffffffffffffffffffffffffffffffffffffff1681565b601860009054906101000a900473ffffffffffffffffffffffffffffffffffffffff1681565b60138060000154908060010154908060020154905083565b6000600860008381526020019081526020016000209050600182101580156112fd575060048211155b61133c576040517f08c379a000000000000000000000000000000000000000000000000000000000815260040161133390612035565b60405180910390fd5b60001515600960003373ffffffffffffffffffffffffffffffffffffffff1673ffffffffffffffffffffffffffffffffffffffff1681526020019081526020016000206000600154815260200190815260200160002060000160009054906101000a900460ff161515146113e5576040517f08c379a00000000000000000000000000000000000000000000000000000000081526004016113dc90611f95565b60405180910390fd5b60018160010160008282546113fa91906120e3565b9250508190555081816002018190555081600960003373ffffffffffffffffffffffffffffffffffffffff1673ffffffffffffffffffffffffffffffffffffffff168152602001908152602001600020600060015481526020019081526020016000206001018190555060006004826001015411156114e6576007826001015411156114c8576009826001015411156114aa57670429d069189e000082600001546114a591906120e3565b6114c3565b6702c68af0bb14000082600001546114c291906120e3565b5b6114e1565b67016345785d8a000082600001546114e091906120e3565b5b6114ec565b81600001545b9050803414611530576040517f08c379a000000000000000000000000000000000000000000000000000000000815260040161152790611fd5565b60405180910390fd5b80600960003373ffffffffffffffffffffffffffffffffffffffff1673ffffffffffffffffffffffffffffffffffffffff16815260200190815260200160002060006001548152602001908152602001600020600201819055506115c96040518060400160405280600981526020017f507269636520697320000000000000000000000000000000000000000000000081525082611976565b61160c6040518060400160405280600a81526020017f537570706c7920697320000000000000000000000000000000000000000000008152508360010154611976565b61164d6040518060400160405280601781526020017f537570706c7920726f756e64206e756d62657220697320000000000000000000815250600154611976565b60006064605a3461165e919061216a565b6116689190612139565b90506116743382611a12565b346004600082825461168691906120e3565b925050819055506003836001015414156116af5760015460038190555082600201546002819055505b6001600960003373ffffffffffffffffffffffffffffffffffffffff1673ffffffffffffffffffffffffffffffffffffffff1681526020019081526020016000206000600154815260200190815260200160002060000160006101000a81548160ff02191690831515021790555060016007600082825461173091906120e3565b92505081905550620151804261174691906120e3565b6006819055507fc32b42768a47a585121e9b8d7a2ab9d3f34c326a192dee11ee1732e3d18313f3338460000154600154876040516117879493929190611e21565b60405180910390a150505050565b60065442116117d9576040517f08c379a00000000000000000000000000000000000000000000000000000000081526004016117d090611fb5565b60405180910390fd5b60018060008282546117eb91906120e3565b925050819055506000600a6001018190555067016345785d8a0000600a600001819055506000600d6001018190555067016345785d8a0000600d60000181905550600060136001018190555067016345785d8a0000601360000181905550600060106001018190555067016345785d8a0000601060000181905550565b60007f000000000000000000000000000000000000000000000000000000000000000073ffffffffffffffffffffffffffffffffffffffff1663e3a9db1a836040518263ffffffff1660e01b81526004016118c39190611deb565b60206040518083038186803b1580156118db57600080fd5b505afa1580156118ef573d6000803e3d6000fd5b505050506040513d601f19601f820116820180604052508101906119139190611bd6565b9050919050565b600d8060000154908060010154908060020154905083565b60035481565b60108060000154908060010154908060020154905083565b601960009054906101000a900473ffffffffffffffffffffffffffffffffffffffff1681565b611a0e828260405160240161198c929190611f25565b6040516020818303038152906040527f9710a9d0000000000000000000000000000000000000000000000000000000007bffffffffffffffffffffffffffffffffffffffffffffffffffffffff19166020820180517bffffffffffffffffffffffffffffffffffffffffffffffffffffffff8381831617835250505050611aa2565b5050565b7f000000000000000000000000000000000000000000000000000000000000000073ffffffffffffffffffffffffffffffffffffffff1663f340fa0182846040518363ffffffff1660e01b8152600401611a6c9190611deb565b6000604051808303818588803b158015611a8557600080fd5b505af1158015611a99573d6000803e3d6000fd5b50505050505050565b60008151905060006a636f6e736f6c652e6c6f679050602083016000808483855afa5050505050565b600081359050611ada8161251b565b92915050565b600081359050611aef81612532565b92915050565b600081359050611b0481612549565b92915050565b600081519050611b1981612549565b92915050565b600060208284031215611b3157600080fd5b6000611b3f84828501611acb565b91505092915050565b600060208284031215611b5a57600080fd5b6000611b6884828501611ae0565b91505092915050565b60008060408385031215611b8457600080fd5b6000611b9285828601611acb565b9250506020611ba385828601611af5565b9150509250929050565b600060208284031215611bbf57600080fd5b6000611bcd84828501611af5565b91505092915050565b600060208284031215611be857600080fd5b6000611bf684828501611b0a565b91505092915050565b611c088161220a565b82525050565b611c17816121f8565b82525050565b611c268161221c565b82525050565b611c3581612252565b82525050565b611c4481612276565b82525050565b611c538161229a565b82525050565b611c62816122be565b82525050565b6000611c73826120c7565b611c7d81856120d2565b9350611c8d8185602086016122e2565b611c9681612373565b840191505092915050565b6000611cae6025836120d2565b9150611cb982612384565b604082019050919050565b6000611cd16018836120d2565b9150611cdc826123d3565b602082019050919050565b6000611cf46018836120d2565b9150611cff826123fc565b602082019050919050565b6000611d17600d836120d2565b9150611d2282612425565b602082019050919050565b6000611d3a6013836120d2565b9150611d458261244e565b602082019050919050565b6000611d5d600c836120d2565b9150611d6882612477565b602082019050919050565b6000611d80601f836120d2565b9150611d8b826124a0565b602082019050919050565b6000611da3600b836120d2565b9150611dae826124c9565b602082019050919050565b6000611dc66019836120d2565b9150611dd1826124f2565b602082019050919050565b611de581612248565b82525050565b6000602082019050611e006000830184611c0e565b92915050565b6000602082019050611e1b6000830184611bff565b92915050565b6000608082019050611e366000830187611c0e565b611e436020830186611ddc565b611e506040830185611ddc565b611e5d6060830184611ddc565b95945050505050565b600060a082019050611e7b6000830188611c1d565b611e886020830187611ddc565b611e956040830186611ddc565b611ea26060830185611c1d565b611eaf6080830184611c1d565b9695505050505050565b6000602082019050611ece6000830184611c2c565b92915050565b6000602082019050611ee96000830184611c3b565b92915050565b6000602082019050611f046000830184611c4a565b92915050565b6000602082019050611f1f6000830184611c59565b92915050565b60006040820190508181036000830152611f3f8185611c68565b9050611f4e6020830184611ddc565b9392505050565b60006020820190508181036000830152611f6e81611ca1565b9050919050565b60006020820190508181036000830152611f8e81611cc4565b9050919050565b60006020820190508181036000830152611fae81611ce7565b9050919050565b60006020820190508181036000830152611fce81611d0a565b9050919050565b60006020820190508181036000830152611fee81611d2d565b9050919050565b6000602082019050818103600083015261200e81611d50565b9050919050565b6000602082019050818103600083015261202e81611d73565b9050919050565b6000602082019050818103600083015261204e81611d96565b9050919050565b6000602082019050818103600083015261206e81611db9565b9050919050565b600060208201905061208a6000830184611ddc565b92915050565b60006060820190506120a56000830186611ddc565b6120b26020830185611ddc565b6120bf6040830184611ddc565b949350505050565b600081519050919050565b600082825260208201905092915050565b60006120ee82612248565b91506120f983612248565b9250827fffffffffffffffffffffffffffffffffffffffffffffffffffffffffffffffff0382111561212e5761212d612315565b5b828201905092915050565b600061214482612248565b915061214f83612248565b92508261215f5761215e612344565b5b828204905092915050565b600061217582612248565b915061218083612248565b9250817fffffffffffffffffffffffffffffffffffffffffffffffffffffffffffffffff04831182151516156121b9576121b8612315565b5b828202905092915050565b60006121cf82612248565b91506121da83612248565b9250828210156121ed576121ec612315565b5b828203905092915050565b600061220382612228565b9050919050565b600061221582612228565b9050919050565b60008115159050919050565b600073ffffffffffffffffffffffffffffffffffffffff82169050919050565b6000819050919050565b600061225d82612264565b9050919050565b600061226f82612228565b9050919050565b600061228182612288565b9050919050565b600061229382612228565b9050919050565b60006122a5826122ac565b9050919050565b60006122b782612228565b9050919050565b60006122c9826122d0565b9050919050565b60006122db82612228565b9050919050565b60005b838110156123005780820151818401526020810190506122e5565b8381111561230f576000848401525b50505050565b7f4e487b7100000000000000000000000000000000000000000000000000000000600052601160045260246000fd5b7f4e487b7100000000000000000000000000000000000000000000000000000000600052601260045260246000fd5b6000601f19601f8301169050919050565b7f416c726561647920636c61696d65642072657761726420666f7220746869732060008201527f726f756e64000000000000000000000000000000000000000000000000000000602082015250565b7f6861766520746f2062652077696e6e696e6720636f6c6f720000000000000000600082015250565b7f416c726561647920766f746564207468697320726f756e640000000000000000600082015250565b7f4e6f742079657420726561647900000000000000000000000000000000000000600082015250565b7f496e73756666696369656e7420616d6f756e7400000000000000000000000000600082015250565b7f6861766520746f20766f74650000000000000000000000000000000000000000600082015250565b7f5265656e7472616e637947756172643a207265656e7472616e742063616c6c00600082015250565b7f77726f6e6720636f6c6f72000000000000000000000000000000000000000000600082015250565b7f416c7265616479206d696e746564207468697320726f756e6400000000000000600082015250565b612524816121f8565b811461252f57600080fd5b50565b61253b8161220a565b811461254657600080fd5b50565b61255281612248565b811461255d57600080fd5b5056fea2646970667358221220e824792e8c6b94b9ba5ca47cdb9aa660f89e738bf997ba502c197b909ccee0af64736f6c63430008040033608060405234801561001057600080fd5b5061002d61002261003260201b60201c565b61003a60201b60201c565b6100fe565b600033905090565b60008060009054906101000a900473ffffffffffffffffffffffffffffffffffffffff169050816000806101000a81548173ffffffffffffffffffffffffffffffffffffffff021916908373ffffffffffffffffffffffffffffffffffffffff1602179055508173ffffffffffffffffffffffffffffffffffffffff168173ffffffffffffffffffffffffffffffffffffffff167f8be0079c531659141344cd1fd0a4f28419497f9722a3daafe3b4186f6b6457e060405160405180910390a35050565b610bfc8061010d6000396000f3fe6080604052600436106100555760003560e01c806351cff8d91461005a578063715018a6146100835780638da5cb5b1461009a578063e3a9db1a146100c5578063f2fde38b14610102578063f340fa011461012b575b600080fd5b34801561006657600080fd5b50610081600480360381019061007c91906107f5565b610147565b005b34801561008f57600080fd5b506100986102c7565b005b3480156100a657600080fd5b506100af61034f565b6040516100bc9190610900565b60405180910390f35b3480156100d157600080fd5b506100ec60048036038101906100e791906107cc565b610378565b6040516100f9919061099b565b60405180910390f35b34801561010e57600080fd5b50610129600480360381019061012491906107cc565b6103c1565b005b610145600480360381019061014091906107cc565b6104b9565b005b61014f6105e2565b73ffffffffffffffffffffffffffffffffffffffff1661016d61034f565b73ffffffffffffffffffffffffffffffffffffffff16146101c3576040517f08c379a00000000000000000000000000000000000000000000000000000000081526004016101ba9061097b565b60405180910390fd5b6000600160008373ffffffffffffffffffffffffffffffffffffffff1673ffffffffffffffffffffffffffffffffffffffff1681526020019081526020016000205490506000600160008473ffffffffffffffffffffffffffffffffffffffff1673ffffffffffffffffffffffffffffffffffffffff16815260200190815260200160002081905550610275818373ffffffffffffffffffffffffffffffffffffffff166105ea90919063ffffffff16565b8173ffffffffffffffffffffffffffffffffffffffff167f7084f5476618d8e60b11ef0d7d3f06914655adb8793e28ff7f018d4c76d505d5826040516102bb919061099b565b60405180910390a25050565b6102cf6105e2565b73ffffffffffffffffffffffffffffffffffffffff166102ed61034f565b73ffffffffffffffffffffffffffffffffffffffff1614610343576040517f08c379a000000000000000000000000000000000000000000000000000000000815260040161033a9061097b565b60405180910390fd5b61034d60006106de565b565b60008060009054906101000a900473ffffffffffffffffffffffffffffffffffffffff16905090565b6000600160008373ffffffffffffffffffffffffffffffffffffffff1673ffffffffffffffffffffffffffffffffffffffff168152602001908152602001600020549050919050565b6103c96105e2565b73ffffffffffffffffffffffffffffffffffffffff166103e761034f565b73ffffffffffffffffffffffffffffffffffffffff161461043d576040517f08c379a00000000000000000000000000000000000000000000000000000000081526004016104349061097b565b60405180910390fd5b600073ffffffffffffffffffffffffffffffffffffffff168173ffffffffffffffffffffffffffffffffffffffff1614156104ad576040517f08c379a00000000000000000000000000000000000000000000000000000000081526004016104a49061091b565b60405180910390fd5b6104b6816106de565b50565b6104c16105e2565b73ffffffffffffffffffffffffffffffffffffffff166104df61034f565b73ffffffffffffffffffffffffffffffffffffffff1614610535576040517f08c379a000000000000000000000000000000000000000000000000000000000815260040161052c9061097b565b60405180910390fd5b600034905080600160008473ffffffffffffffffffffffffffffffffffffffff1673ffffffffffffffffffffffffffffffffffffffff168152602001908152602001600020600082825461058991906109d2565b925050819055508173ffffffffffffffffffffffffffffffffffffffff167f2da466a7b24304f47e87fa2e1e5a81b9831ce54fec19055ce277ca2f39ba42c4826040516105d6919061099b565b60405180910390a25050565b600033905090565b8047101561062d576040517f08c379a00000000000000000000000000000000000000000000000000000000081526004016106249061095b565b60405180910390fd5b60008273ffffffffffffffffffffffffffffffffffffffff1682604051610653906108eb565b60006040518083038185875af1925050503d8060008114610690576040519150601f19603f3d011682016040523d82523d6000602084013e610695565b606091505b50509050806106d9576040517f08c379a00000000000000000000000000000000000000000000000000000000081526004016106d09061093b565b60405180910390fd5b505050565b60008060009054906101000a900473ffffffffffffffffffffffffffffffffffffffff169050816000806101000a81548173ffffffffffffffffffffffffffffffffffffffff021916908373ffffffffffffffffffffffffffffffffffffffff1602179055508173ffffffffffffffffffffffffffffffffffffffff168173ffffffffffffffffffffffffffffffffffffffff167f8be0079c531659141344cd1fd0a4f28419497f9722a3daafe3b4186f6b6457e060405160405180910390a35050565b6000813590506107b181610b98565b92915050565b6000813590506107c681610baf565b92915050565b6000602082840312156107de57600080fd5b60006107ec848285016107a2565b91505092915050565b60006020828403121561080757600080fd5b6000610815848285016107b7565b91505092915050565b61082781610a28565b82525050565b600061083a6026836109c1565b915061084582610aa5565b604082019050919050565b600061085d603a836109c1565b915061086882610af4565b604082019050919050565b6000610880601d836109c1565b915061088b82610b43565b602082019050919050565b60006108a36020836109c1565b91506108ae82610b6c565b602082019050919050565b60006108c66000836109b6565b91506108d182610b95565b600082019050919050565b6108e581610a6c565b82525050565b60006108f6826108b9565b9150819050919050565b6000602082019050610915600083018461081e565b92915050565b600060208201905081810360008301526109348161082d565b9050919050565b6000602082019050818103600083015261095481610850565b9050919050565b6000602082019050818103600083015261097481610873565b9050919050565b6000602082019050818103600083015261099481610896565b9050919050565b60006020820190506109b060008301846108dc565b92915050565b600081905092915050565b600082825260208201905092915050565b60006109dd82610a6c565b91506109e883610a6c565b9250827fffffffffffffffffffffffffffffffffffffffffffffffffffffffffffffffff03821115610a1d57610a1c610a76565b5b828201905092915050565b6000610a3382610a4c565b9050919050565b6000610a4582610a4c565b9050919050565b600073ffffffffffffffffffffffffffffffffffffffff82169050919050565b6000819050919050565b7f4e487b7100000000000000000000000000000000000000000000000000000000600052601160045260246000fd5b7f4f776e61626c653a206e6577206f776e657220697320746865207a65726f206160008201527f6464726573730000000000000000000000000000000000000000000000000000602082015250565b7f416464726573733a20756e61626c6520746f2073656e642076616c75652c207260008201527f6563697069656e74206d61792068617665207265766572746564000000000000602082015250565b7f416464726573733a20696e73756666696369656e742062616c616e6365000000600082015250565b7f4f776e61626c653a2063616c6c6572206973206e6f7420746865206f776e6572600082015250565b50565b610ba181610a28565b8114610bac57600080fd5b50565b610bb881610a3a565b8114610bc357600080fd5b5056fea2646970667358221220b2a6db4c00e57e7ef608d5e81a53c60e6688cd2b85172cc39bb6858c6c6988ec64736f6c63430008040033",
  "linkReferences": {},
  "deployedLinkReferences": {}
}