{
  "_format": "hh-sol-artifact-1",
  "contractName": "GameLogic",
  "sourceName": "contracts/GameLogic.sol",
  "abi": [
    {
      "inputs": [
        {
          "internalType": "address",
          "name": "_red",
          "type": "address"
        },
        {
          "internalType": "address",
          "name": "_blue",
          "type": "address"
        },
        {
          "internalType": "address",
          "name": "_green",
          "type": "address"
        },
        {
          "internalType": "address",
          "name": "_yellow",
          "type": "address"
        }
      ],
      "stateMutability": "nonpayable",
      "type": "constructor"
    },
    {
      "anonymous": false,
      "inputs": [
        {
          "indexed": false,
          "internalType": "address",
          "name": "voter",
          "type": "address"
        },
        {
          "indexed": false,
          "internalType": "uint256",
          "name": "price",
          "type": "uint256"
        },
        {
          "indexed": false,
          "internalType": "uint256",
          "name": "roundNumber",
          "type": "uint256"
        },
        {
          "indexed": false,
          "internalType": "uint256",
          "name": "color",
          "type": "uint256"
        }
      ],
      "name": "Voted",
      "type": "event"
    },
    {
      "inputs": [],
      "name": "blue",
      "outputs": [
        {
          "internalType": "uint256",
          "name": "mintPrice",
          "type": "uint256"
        },
        {
          "internalType": "uint256",
          "name": "oldSupply",
          "type": "uint256"
        },
        {
          "internalType": "uint256",
          "name": "color",
          "type": "uint256"
        }
      ],
      "stateMutability": "view",
      "type": "function"
    },
    {
      "inputs": [],
      "name": "blueContract",
      "outputs": [
        {
          "internalType": "contract IBlue",
          "name": "",
          "type": "address"
        }
      ],
      "stateMutability": "view",
      "type": "function"
    },
    {
      "inputs": [],
      "name": "claimReward",
      "outputs": [],
      "stateMutability": "payable",
      "type": "function"
    },
    {
      "inputs": [
        {
          "internalType": "uint256",
          "name": "",
          "type": "uint256"
        }
      ],
      "name": "colorToNFT",
      "outputs": [
        {
          "internalType": "uint256",
          "name": "mintPrice",
          "type": "uint256"
        },
        {
          "internalType": "uint256",
          "name": "oldSupply",
          "type": "uint256"
        },
        {
          "internalType": "uint256",
          "name": "color",
          "type": "uint256"
        }
      ],
      "stateMutability": "view",
      "type": "function"
    },
    {
      "inputs": [],
      "name": "currentRoundPool",
      "outputs": [
        {
          "internalType": "uint256",
          "name": "",
          "type": "uint256"
        }
      ],
      "stateMutability": "view",
      "type": "function"
    },
    {
      "inputs": [],
      "name": "green",
      "outputs": [
        {
          "internalType": "uint256",
          "name": "mintPrice",
          "type": "uint256"
        },
        {
          "internalType": "uint256",
          "name": "oldSupply",
          "type": "uint256"
        },
        {
          "internalType": "uint256",
          "name": "color",
          "type": "uint256"
        }
      ],
      "stateMutability": "view",
      "type": "function"
    },
    {
      "inputs": [],
      "name": "greenContract",
      "outputs": [
        {
          "internalType": "contract IGreen",
          "name": "",
          "type": "address"
        }
      ],
      "stateMutability": "view",
      "type": "function"
    },
    {
      "inputs": [],
      "name": "mintWinner",
      "outputs": [],
      "stateMutability": "payable",
      "type": "function"
    },
    {
      "inputs": [
        {
          "internalType": "address",
          "name": "dest",
          "type": "address"
        }
      ],
      "name": "payments",
      "outputs": [
        {
          "internalType": "uint256",
          "name": "",
          "type": "uint256"
        }
      ],
      "stateMutability": "view",
      "type": "function"
    },
    {
      "inputs": [],
      "name": "red",
      "outputs": [
        {
          "internalType": "uint256",
          "name": "mintPrice",
          "type": "uint256"
        },
        {
          "internalType": "uint256",
          "name": "oldSupply",
          "type": "uint256"
        },
        {
          "internalType": "uint256",
          "name": "color",
          "type": "uint256"
        }
      ],
      "stateMutability": "view",
      "type": "function"
    },
    {
      "inputs": [],
      "name": "redContract",
      "outputs": [
        {
          "internalType": "contract IRed",
          "name": "",
          "type": "address"
        }
      ],
      "stateMutability": "view",
      "type": "function"
    },
    {
      "inputs": [],
      "name": "redeemAll",
      "outputs": [],
      "stateMutability": "nonpayable",
      "type": "function"
    },
    {
      "inputs": [],
      "name": "reset",
      "outputs": [],
      "stateMutability": "nonpayable",
      "type": "function"
    },
    {
      "inputs": [],
      "name": "resetTime",
      "outputs": [
        {
          "internalType": "uint256",
          "name": "",
          "type": "uint256"
        }
      ],
      "stateMutability": "view",
      "type": "function"
    },
    {
      "inputs": [],
      "name": "roundNumber",
      "outputs": [
        {
          "internalType": "uint256",
          "name": "",
          "type": "uint256"
        }
      ],
      "stateMutability": "view",
      "type": "function"
    },
    {
      "inputs": [
        {
          "internalType": "address",
          "name": "",
          "type": "address"
        },
        {
          "internalType": "uint256",
          "name": "",
          "type": "uint256"
        }
      ],
      "name": "roundToVoter",
      "outputs": [
        {
          "internalType": "bool",
          "name": "voted",
          "type": "bool"
        },
        {
          "internalType": "uint256",
          "name": "color",
          "type": "uint256"
        },
        {
          "internalType": "uint256",
          "name": "mintPrice",
          "type": "uint256"
        },
        {
          "internalType": "bool",
          "name": "minted",
          "type": "bool"
        },
        {
          "internalType": "bool",
          "name": "claimedReward",
          "type": "bool"
        }
      ],
      "stateMutability": "view",
      "type": "function"
    },
    {
      "inputs": [],
      "name": "sidePotPool",
      "outputs": [
        {
          "internalType": "address",
          "name": "",
          "type": "address"
        }
      ],
      "stateMutability": "view",
      "type": "function"
    },
    {
      "inputs": [
        {
          "internalType": "uint256",
          "name": "_color",
          "type": "uint256"
        }
      ],
      "name": "voteForColor",
      "outputs": [],
      "stateMutability": "payable",
      "type": "function"
    },
    {
      "inputs": [],
      "name": "votersInRound",
      "outputs": [
        {
          "internalType": "uint256",
          "name": "",
          "type": "uint256"
        }
      ],
      "stateMutability": "view",
      "type": "function"
    },
    {
      "inputs": [],
      "name": "winningColor",
      "outputs": [
        {
          "internalType": "uint256",
          "name": "",
          "type": "uint256"
        }
      ],
      "stateMutability": "view",
      "type": "function"
    },
    {
      "inputs": [],
      "name": "winningRound",
      "outputs": [
        {
          "internalType": "uint256",
          "name": "",
          "type": "uint256"
        }
      ],
      "stateMutability": "view",
      "type": "function"
    },
    {
      "inputs": [
        {
          "internalType": "address payable",
          "name": "payee",
          "type": "address"
        }
      ],
      "name": "withdrawPayments",
      "outputs": [],
      "stateMutability": "nonpayable",
      "type": "function"
    },
    {
      "inputs": [],
      "name": "yellow",
      "outputs": [
        {
          "internalType": "uint256",
          "name": "mintPrice",
          "type": "uint256"
        },
        {
          "internalType": "uint256",
          "name": "oldSupply",
          "type": "uint256"
        },
        {
          "internalType": "uint256",
          "name": "color",
          "type": "uint256"
        }
      ],
      "stateMutability": "view",
      "type": "function"
    },
    {
      "inputs": [],
      "name": "yellowContract",
      "outputs": [
        {
          "internalType": "contract IYellow",
          "name": "",
          "type": "address"
        }
      ],
      "stateMutability": "view",
      "type": "function"
    }
  ],
  "bytecode": "0x60a060405260018055604051806060016040528067016345785d8a00008152602001600081526020016001815250600a6000820151816000015560208201518160010155604082015181600201555050604051806060016040528067016345785d8a00008152602001600081526020016002815250600d6000820151816000015560208201518160010155604082015181600201555050604051806060016040528067016345785d8a0000815260200160008152602001600381525060106000820151816000015560208201518160010155604082015181600201555050604051806060016040528067016345785d8a00008152602001600081526020016004815250601360008201518160000155602082015181600101556040820151816002015550503480156200013157600080fd5b5060405162003698380380620036988339818101604052810190620001579190620003cf565b6040516200016590620003aa565b604051809103906000f08015801562000182573d6000803e3d6000fd5b5073ffffffffffffffffffffffffffffffffffffffff1660808173ffffffffffffffffffffffffffffffffffffffff1660601b81525050600160008190555083601660006101000a81548173ffffffffffffffffffffffffffffffffffffffff021916908373ffffffffffffffffffffffffffffffffffffffff16021790555082601760006101000a81548173ffffffffffffffffffffffffffffffffffffffff021916908373ffffffffffffffffffffffffffffffffffffffff16021790555081601860006101000a81548173ffffffffffffffffffffffffffffffffffffffff021916908373ffffffffffffffffffffffffffffffffffffffff16021790555080601960006101000a81548173ffffffffffffffffffffffffffffffffffffffff021916908373ffffffffffffffffffffffffffffffffffffffff160217905550600a60086000808152602001908152602001600020600082015481600001556001820154816001015560028201548160020155905050600d600860006001815260200190815260200160002060008201548160000155600182015481600101556002820154816002015590505060106008600060028152602001908152602001600020600082015481600001556001820154816001015560028201548160020155905050601360086000600381526020019081526020016000206000820154816000015560018201548160010155600282015481600201559050505050505062000489565b610d09806200298f83390190565b600081519050620003c9816200046f565b92915050565b60008060008060808587031215620003e657600080fd5b6000620003f687828801620003b8565b94505060206200040987828801620003b8565b93505060406200041c87828801620003b8565b92505060606200042f87828801620003b8565b91505092959194509250565b600062000448826200044f565b9050919050565b600073ffffffffffffffffffffffffffffffffffffffff82169050919050565b6200047a816200043b565b81146200048657600080fd5b50565b60805160601c6124d9620004b66000396000818161056c0152818161181b01526119c301526124d96000f3fe60806040526004361061014b5760003560e01c8063b345bdfc116100b6578063d826f88f1161006f578063d826f88f1461041d578063e2982c2114610434578063ed18f0a714610471578063f05f4b001461049e578063f2f1e132146104c9578063f5fcffb1146104f65761014b565b8063b345bdfc14610335578063b88a802f14610374578063b9ebc2d01461037e578063bb9fca17146103a9578063be9faf13146103d4578063c60deabd146104015761014b565b80634c914658116101085780634c914658146102545780634e2786fb1461027f5780634f3516c7146102aa5780635fdf643d146102d557806365a114f1146103005780639787fc7f1461032b5761014b565b80631dc5ab96146101505780632930cf241461017b5780632f4350c2146101a857806331b3eb94146101bf5780633609fc9f146101e85780634949787b14610229575b600080fd5b34801561015c57600080fd5b50610165610521565b6040516101729190611d77565b60405180910390f35b34801561018757600080fd5b50610190610547565b60405161019f93929190611ffc565b60405180910390f35b3480156101b457600080fd5b506101bd61055f565b005b3480156101cb57600080fd5b506101e660048036038101906101e19190611af7565b61056a565b005b3480156101f457600080fd5b5061020f600480360381019061020a9190611b20565b6105f8565b604051610220959493929190611df2565b60405180910390f35b34801561023557600080fd5b5061023e610662565b60405161024b9190611fe1565b60405180910390f35b34801561026057600080fd5b50610269610668565b6040516102769190611fe1565b60405180910390f35b34801561028b57600080fd5b5061029461066e565b6040516102a19190611fe1565b60405180910390f35b3480156102b657600080fd5b506102bf610674565b6040516102cc9190611fe1565b60405180910390f35b3480156102e157600080fd5b506102ea61067a565b6040516102f79190611e7b565b60405180910390f35b34801561030c57600080fd5b506103156106a0565b6040516103229190611fe1565b60405180910390f35b6103336106a6565b005b34801561034157600080fd5b5061035c60048036038101906103579190611b5c565b610d5d565b60405161036b93929190611ffc565b60405180910390f35b61037c610d87565b005b34801561038a57600080fd5b50610393611270565b6040516103a09190611e45565b60405180910390f35b3480156103b557600080fd5b506103be611296565b6040516103cb9190611e60565b60405180910390f35b3480156103e057600080fd5b506103e96112bc565b6040516103f893929190611ffc565b60405180910390f35b61041b60048036038101906104169190611b5c565b6112d4565b005b34801561042957600080fd5b50610432611744565b005b34801561044057600080fd5b5061045b60048036038101906104569190611ace565b611817565b6040516104689190611fe1565b60405180910390f35b34801561047d57600080fd5b506104866118c9565b60405161049593929190611ffc565b60405180910390f35b3480156104aa57600080fd5b506104b36118e1565b6040516104c09190611fe1565b60405180910390f35b3480156104d557600080fd5b506104de6118e7565b6040516104ed93929190611ffc565b60405180910390f35b34801561050257600080fd5b5061050b6118ff565b6040516105189190611e96565b60405180910390f35b600560009054906101000a900473ffffffffffffffffffffffffffffffffffffffff1681565b600a8060000154908060010154908060020154905083565b6105683361056a565b565b7f000000000000000000000000000000000000000000000000000000000000000073ffffffffffffffffffffffffffffffffffffffff166351cff8d9826040518263ffffffff1660e01b81526004016105c39190611d92565b600060405180830381600087803b1580156105dd57600080fd5b505af11580156105f1573d6000803e3d6000fd5b5050505050565b6009602052816000526040600020602052806000526040600020600091509150508060000160009054906101000a900460ff16908060010154908060020154908060030160009054906101000a900460ff16908060030160019054906101000a900460ff16905085565b60025481565b60045481565b60015481565b60075481565b601660009054906101000a900473ffffffffffffffffffffffffffffffffffffffff1681565b60065481565b600260005414156106ec576040517f08c379a00000000000000000000000000000000000000000000000000000000081526004016106e390611fa1565b60405180910390fd5b600260008190555060011515600960003373ffffffffffffffffffffffffffffffffffffffff1673ffffffffffffffffffffffffffffffffffffffff1681526020019081526020016000206000600354815260200190815260200160002060000160009054906101000a900460ff1615151461079d576040517f08c379a000000000000000000000000000000000000000000000000000000000815260040161079490611f81565b60405180910390fd5b600254600960003373ffffffffffffffffffffffffffffffffffffffff1673ffffffffffffffffffffffffffffffffffffffff168152602001908152602001600020600060035481526020019081526020016000206001015414610836576040517f08c379a000000000000000000000000000000000000000000000000000000000815260040161082d90611f01565b60405180910390fd5b60001515600960003373ffffffffffffffffffffffffffffffffffffffff1673ffffffffffffffffffffffffffffffffffffffff1681526020019081526020016000206000600354815260200190815260200160002060030160019054906101000a900460ff161515146108df576040517f08c379a00000000000000000000000000000000000000000000000000000000081526004016108d690611ee1565b60405180910390fd5b60001515600960003373ffffffffffffffffffffffffffffffffffffffff1673ffffffffffffffffffffffffffffffffffffffff1681526020019081526020016000206000600354815260200190815260200160002060030160009054906101000a900460ff16151514610988576040517f08c379a000000000000000000000000000000000000000000000000000000000815260040161097f90611fc1565b60405180910390fd5b6001600960003373ffffffffffffffffffffffffffffffffffffffff1673ffffffffffffffffffffffffffffffffffffffff168152602001908152602001600020600060035481526020019081526020016000206001015414610c57576002600960003373ffffffffffffffffffffffffffffffffffffffff1673ffffffffffffffffffffffffffffffffffffffff168152602001908152602001600020600060035481526020019081526020016000206001015414610bc4576003600960003373ffffffffffffffffffffffffffffffffffffffff1673ffffffffffffffffffffffffffffffffffffffff168152602001908152602001600020600060035481526020019081526020016000206001015414610b3157601960009054906101000a900473ffffffffffffffffffffffffffffffffffffffff1673ffffffffffffffffffffffffffffffffffffffff16634894d393336040518263ffffffff1660e01b8152600401610afa9190611d77565b600060405180830381600087803b158015610b1457600080fd5b505af1158015610b28573d6000803e3d6000fd5b50505050610bbf565b601860009054906101000a900473ffffffffffffffffffffffffffffffffffffffff1673ffffffffffffffffffffffffffffffffffffffff16634894d393336040518263ffffffff1660e01b8152600401610b8c9190611d77565b600060405180830381600087803b158015610ba657600080fd5b505af1158015610bba573d6000803e3d6000fd5b505050505b610c52565b601760009054906101000a900473ffffffffffffffffffffffffffffffffffffffff1673ffffffffffffffffffffffffffffffffffffffff16634894d393336040518263ffffffff1660e01b8152600401610c1f9190611d77565b600060405180830381600087803b158015610c3957600080fd5b505af1158015610c4d573d6000803e3d6000fd5b505050505b610ce5565b601660009054906101000a900473ffffffffffffffffffffffffffffffffffffffff1673ffffffffffffffffffffffffffffffffffffffff16634894d393336040518263ffffffff1660e01b8152600401610cb29190611d77565b600060405180830381600087803b158015610ccc57600080fd5b505af1158015610ce0573d6000803e3d6000fd5b505050505b6001600960003373ffffffffffffffffffffffffffffffffffffffff1673ffffffffffffffffffffffffffffffffffffffff1681526020019081526020016000206000600354815260200190815260200160002060030160006101000a81548160ff0219169083151502179055506001600081905550565b60086020528060005260406000206000915090508060000154908060010154908060020154905083565b60026000541415610dcd576040517f08c379a0000000000000000000000000000000000000000000000000000000008152600401610dc490611fa1565b60405180910390fd5b600260008190555060011515600960003373ffffffffffffffffffffffffffffffffffffffff1673ffffffffffffffffffffffffffffffffffffffff1681526020019081526020016000206000600354815260200190815260200160002060000160009054906101000a900460ff16151514610e7e576040517f08c379a0000000000000000000000000000000000000000000000000000000008152600401610e7590611f81565b60405180910390fd5b600254600960003373ffffffffffffffffffffffffffffffffffffffff1673ffffffffffffffffffffffffffffffffffffffff168152602001908152602001600020600060035481526020019081526020016000206001015414610f17576040517f08c379a0000000000000000000000000000000000000000000000000000000008152600401610f0e90611f01565b60405180910390fd5b60001515600960003373ffffffffffffffffffffffffffffffffffffffff1673ffffffffffffffffffffffffffffffffffffffff1681526020019081526020016000206000600354815260200190815260200160002060030160019054906101000a900460ff16151514610fc0576040517f08c379a0000000000000000000000000000000000000000000000000000000008152600401610fb790611ee1565b60405180910390fd5b60001515600960003373ffffffffffffffffffffffffffffffffffffffff1673ffffffffffffffffffffffffffffffffffffffff1681526020019081526020016000206000600354815260200190815260200160002060030160009054906101000a900460ff16151514611069576040517f08c379a000000000000000000000000000000000000000000000000000000000815260040161106090611fc1565b60405180910390fd5b6110aa6040518060400160405280601181526020017f63757272656e74526f756e64506f6f6c20000000000000000000000000000000815250600454611925565b6110eb6040518060400160405280600e81526020017f766f74657273496e526f756e6420000000000000000000000000000000000000815250600754611925565b61115d6040518060400160405280600781526020017f616d6f756e742000000000000000000000000000000000000000000000000000815250600a8060075460045461113791906120a5565b61114191906120d6565b60045461114e9190612130565b61115891906120a5565b611925565b61119a33600a8060075460045461117491906120a5565b61117e91906120d6565b60045461118b9190612130565b61119591906120a5565b6119c1565b6111a261055f565b6111f86040518060400160405280601781526020017f62616c616e63652061667465722072656465656d416c6c0000000000000000008152503373ffffffffffffffffffffffffffffffffffffffff1631611925565b6001600960003373ffffffffffffffffffffffffffffffffffffffff1673ffffffffffffffffffffffffffffffffffffffff1681526020019081526020016000206000600354815260200190815260200160002060030160016101000a81548160ff0219169083151502179055506001600081905550565b601760009054906101000a900473ffffffffffffffffffffffffffffffffffffffff1681565b601860009054906101000a900473ffffffffffffffffffffffffffffffffffffffff1681565b60138060000154908060010154908060020154905083565b600060086000838152602001908152602001600020905060001515600960003373ffffffffffffffffffffffffffffffffffffffff1673ffffffffffffffffffffffffffffffffffffffff1681526020019081526020016000206000600154815260200190815260200160002060000160009054906101000a900460ff16151514611394576040517f08c379a000000000000000000000000000000000000000000000000000000000815260040161138b90611f21565b60405180910390fd5b60018160010160008282546113a9919061204f565b9250508190555081816002018190555081600960003373ffffffffffffffffffffffffffffffffffffffff1673ffffffffffffffffffffffffffffffffffffffff16815260200190815260200160002060006001548152602001908152602001600020600101819055506000600482600101541115611495576007826001015411156114775760098260010154111561145957670429d069189e00008260000154611454919061204f565b611472565b6702c68af0bb1400008260000154611471919061204f565b5b611490565b67016345785d8a0000826000015461148f919061204f565b5b61149b565b81600001545b90508034146114df576040517f08c379a00000000000000000000000000000000000000000000000000000000081526004016114d690611f61565b60405180910390fd5b80600960003373ffffffffffffffffffffffffffffffffffffffff1673ffffffffffffffffffffffffffffffffffffffff16815260200190815260200160002060006001548152602001908152602001600020600201819055506115786040518060400160405280600981526020017f507269636520697320000000000000000000000000000000000000000000000081525082611925565b6115bb6040518060400160405280600a81526020017f537570706c7920697320000000000000000000000000000000000000000000008152508360010154611925565b6115fc6040518060400160405280601781526020017f537570706c7920726f756e64206e756d62657220697320000000000000000000815250600154611925565b60006064605a3461160d91906120d6565b61161791906120a5565b905061162333826119c1565b3460046000828254611635919061204f565b9250508190555060038360010154141561165e5760015460038190555082600201546002819055505b6001600960003373ffffffffffffffffffffffffffffffffffffffff1673ffffffffffffffffffffffffffffffffffffffff1681526020019081526020016000206000600154815260200190815260200160002060000160006101000a81548160ff0219169083151502179055506001600760008282546116df919061204f565b9250508190555062015180426116f5919061204f565b6006819055507fc32b42768a47a585121e9b8d7a2ab9d3f34c326a192dee11ee1732e3d18313f3338460000154600154876040516117369493929190611dad565b60405180910390a150505050565b6006544211611788576040517f08c379a000000000000000000000000000000000000000000000000000000000815260040161177f90611f41565b60405180910390fd5b600180600082825461179a919061204f565b925050819055506000600a6001018190555067016345785d8a0000600a600001819055506000600d6001018190555067016345785d8a0000600d60000181905550600060136001018190555067016345785d8a0000601360000181905550600060106001018190555067016345785d8a0000601060000181905550565b60007f000000000000000000000000000000000000000000000000000000000000000073ffffffffffffffffffffffffffffffffffffffff1663e3a9db1a836040518263ffffffff1660e01b81526004016118729190611d77565b60206040518083038186803b15801561188a57600080fd5b505afa15801561189e573d6000803e3d6000fd5b505050506040513d601f19601f820116820180604052508101906118c29190611b85565b9050919050565b600d8060000154908060010154908060020154905083565b60035481565b60108060000154908060010154908060020154905083565b601960009054906101000a900473ffffffffffffffffffffffffffffffffffffffff1681565b6119bd828260405160240161193b929190611eb1565b6040516020818303038152906040527f9710a9d0000000000000000000000000000000000000000000000000000000007bffffffffffffffffffffffffffffffffffffffffffffffffffffffff19166020820180517bffffffffffffffffffffffffffffffffffffffffffffffffffffffff8381831617835250505050611a51565b5050565b7f000000000000000000000000000000000000000000000000000000000000000073ffffffffffffffffffffffffffffffffffffffff1663f340fa0182846040518363ffffffff1660e01b8152600401611a1b9190611d77565b6000604051808303818588803b158015611a3457600080fd5b505af1158015611a48573d6000803e3d6000fd5b50505050505050565b60008151905060006a636f6e736f6c652e6c6f679050602083016000808483855afa5050505050565b600081359050611a898161245e565b92915050565b600081359050611a9e81612475565b92915050565b600081359050611ab38161248c565b92915050565b600081519050611ac88161248c565b92915050565b600060208284031215611ae057600080fd5b6000611aee84828501611a7a565b91505092915050565b600060208284031215611b0957600080fd5b6000611b1784828501611a8f565b91505092915050565b60008060408385031215611b3357600080fd5b6000611b4185828601611a7a565b9250506020611b5285828601611aa4565b9150509250929050565b600060208284031215611b6e57600080fd5b6000611b7c84828501611aa4565b91505092915050565b600060208284031215611b9757600080fd5b6000611ba584828501611ab9565b91505092915050565b611bb781612176565b82525050565b611bc681612164565b82525050565b611bd581612188565b82525050565b611be4816121be565b82525050565b611bf3816121e2565b82525050565b611c0281612206565b82525050565b611c118161222a565b82525050565b6000611c2282612033565b611c2c818561203e565b9350611c3c81856020860161224e565b611c45816122df565b840191505092915050565b6000611c5d60258361203e565b9150611c68826122f0565b604082019050919050565b6000611c8060188361203e565b9150611c8b8261233f565b602082019050919050565b6000611ca360188361203e565b9150611cae82612368565b602082019050919050565b6000611cc6600d8361203e565b9150611cd182612391565b602082019050919050565b6000611ce960138361203e565b9150611cf4826123ba565b602082019050919050565b6000611d0c600c8361203e565b9150611d17826123e3565b602082019050919050565b6000611d2f601f8361203e565b9150611d3a8261240c565b602082019050919050565b6000611d5260198361203e565b9150611d5d82612435565b602082019050919050565b611d71816121b4565b82525050565b6000602082019050611d8c6000830184611bbd565b92915050565b6000602082019050611da76000830184611bae565b92915050565b6000608082019050611dc26000830187611bbd565b611dcf6020830186611d68565b611ddc6040830185611d68565b611de96060830184611d68565b95945050505050565b600060a082019050611e076000830188611bcc565b611e146020830187611d68565b611e216040830186611d68565b611e2e6060830185611bcc565b611e3b6080830184611bcc565b9695505050505050565b6000602082019050611e5a6000830184611bdb565b92915050565b6000602082019050611e756000830184611bea565b92915050565b6000602082019050611e906000830184611bf9565b92915050565b6000602082019050611eab6000830184611c08565b92915050565b60006040820190508181036000830152611ecb8185611c17565b9050611eda6020830184611d68565b9392505050565b60006020820190508181036000830152611efa81611c50565b9050919050565b60006020820190508181036000830152611f1a81611c73565b9050919050565b60006020820190508181036000830152611f3a81611c96565b9050919050565b60006020820190508181036000830152611f5a81611cb9565b9050919050565b60006020820190508181036000830152611f7a81611cdc565b9050919050565b60006020820190508181036000830152611f9a81611cff565b9050919050565b60006020820190508181036000830152611fba81611d22565b9050919050565b60006020820190508181036000830152611fda81611d45565b9050919050565b6000602082019050611ff66000830184611d68565b92915050565b60006060820190506120116000830186611d68565b61201e6020830185611d68565b61202b6040830184611d68565b949350505050565b600081519050919050565b600082825260208201905092915050565b600061205a826121b4565b9150612065836121b4565b9250827fffffffffffffffffffffffffffffffffffffffffffffffffffffffffffffffff0382111561209a57612099612281565b5b828201905092915050565b60006120b0826121b4565b91506120bb836121b4565b9250826120cb576120ca6122b0565b5b828204905092915050565b60006120e1826121b4565b91506120ec836121b4565b9250817fffffffffffffffffffffffffffffffffffffffffffffffffffffffffffffffff048311821515161561212557612124612281565b5b828202905092915050565b600061213b826121b4565b9150612146836121b4565b92508282101561215957612158612281565b5b828203905092915050565b600061216f82612194565b9050919050565b600061218182612194565b9050919050565b60008115159050919050565b600073ffffffffffffffffffffffffffffffffffffffff82169050919050565b6000819050919050565b60006121c9826121d0565b9050919050565b60006121db82612194565b9050919050565b60006121ed826121f4565b9050919050565b60006121ff82612194565b9050919050565b600061221182612218565b9050919050565b600061222382612194565b9050919050565b60006122358261223c565b9050919050565b600061224782612194565b9050919050565b60005b8381101561226c578082015181840152602081019050612251565b8381111561227b576000848401525b50505050565b7f4e487b7100000000000000000000000000000000000000000000000000000000600052601160045260246000fd5b7f4e487b7100000000000000000000000000000000000000000000000000000000600052601260045260246000fd5b6000601f19601f8301169050919050565b7f416c726561647920636c61696d65642072657761726420666f7220746869732060008201527f726f756e64000000000000000000000000000000000000000000000000000000602082015250565b7f6861766520746f2062652077696e6e696e6720636f6c6f720000000000000000600082015250565b7f416c726561647920766f746564207468697320726f756e640000000000000000600082015250565b7f4e6f742079657420726561647900000000000000000000000000000000000000600082015250565b7f496e73756666696369656e7420616d6f756e7400000000000000000000000000600082015250565b7f6861766520746f20766f74650000000000000000000000000000000000000000600082015250565b7f5265656e7472616e637947756172643a207265656e7472616e742063616c6c00600082015250565b7f416c7265616479206d696e746564207468697320726f756e6400000000000000600082015250565b61246781612164565b811461247257600080fd5b50565b61247e81612176565b811461248957600080fd5b50565b612495816121b4565b81146124a057600080fd5b5056fea2646970667358221220807feb5cbfa159f29f09942af5a6f8a1124a13450ed394ad50595bfb8d24ff2d64736f6c63430008040033608060405234801561001057600080fd5b5061002d61002261003260201b60201c565b61003a60201b60201c565b6100fe565b600033905090565b60008060009054906101000a900473ffffffffffffffffffffffffffffffffffffffff169050816000806101000a81548173ffffffffffffffffffffffffffffffffffffffff021916908373ffffffffffffffffffffffffffffffffffffffff1602179055508173ffffffffffffffffffffffffffffffffffffffff168173ffffffffffffffffffffffffffffffffffffffff167f8be0079c531659141344cd1fd0a4f28419497f9722a3daafe3b4186f6b6457e060405160405180910390a35050565b610bfc8061010d6000396000f3fe6080604052600436106100555760003560e01c806351cff8d91461005a578063715018a6146100835780638da5cb5b1461009a578063e3a9db1a146100c5578063f2fde38b14610102578063f340fa011461012b575b600080fd5b34801561006657600080fd5b50610081600480360381019061007c91906107f5565b610147565b005b34801561008f57600080fd5b506100986102c7565b005b3480156100a657600080fd5b506100af61034f565b6040516100bc9190610900565b60405180910390f35b3480156100d157600080fd5b506100ec60048036038101906100e791906107cc565b610378565b6040516100f9919061099b565b60405180910390f35b34801561010e57600080fd5b50610129600480360381019061012491906107cc565b6103c1565b005b610145600480360381019061014091906107cc565b6104b9565b005b61014f6105e2565b73ffffffffffffffffffffffffffffffffffffffff1661016d61034f565b73ffffffffffffffffffffffffffffffffffffffff16146101c3576040517f08c379a00000000000000000000000000000000000000000000000000000000081526004016101ba9061097b565b60405180910390fd5b6000600160008373ffffffffffffffffffffffffffffffffffffffff1673ffffffffffffffffffffffffffffffffffffffff1681526020019081526020016000205490506000600160008473ffffffffffffffffffffffffffffffffffffffff1673ffffffffffffffffffffffffffffffffffffffff16815260200190815260200160002081905550610275818373ffffffffffffffffffffffffffffffffffffffff166105ea90919063ffffffff16565b8173ffffffffffffffffffffffffffffffffffffffff167f7084f5476618d8e60b11ef0d7d3f06914655adb8793e28ff7f018d4c76d505d5826040516102bb919061099b565b60405180910390a25050565b6102cf6105e2565b73ffffffffffffffffffffffffffffffffffffffff166102ed61034f565b73ffffffffffffffffffffffffffffffffffffffff1614610343576040517f08c379a000000000000000000000000000000000000000000000000000000000815260040161033a9061097b565b60405180910390fd5b61034d60006106de565b565b60008060009054906101000a900473ffffffffffffffffffffffffffffffffffffffff16905090565b6000600160008373ffffffffffffffffffffffffffffffffffffffff1673ffffffffffffffffffffffffffffffffffffffff168152602001908152602001600020549050919050565b6103c96105e2565b73ffffffffffffffffffffffffffffffffffffffff166103e761034f565b73ffffffffffffffffffffffffffffffffffffffff161461043d576040517f08c379a00000000000000000000000000000000000000000000000000000000081526004016104349061097b565b60405180910390fd5b600073ffffffffffffffffffffffffffffffffffffffff168173ffffffffffffffffffffffffffffffffffffffff1614156104ad576040517f08c379a00000000000000000000000000000000000000000000000000000000081526004016104a49061091b565b60405180910390fd5b6104b6816106de565b50565b6104c16105e2565b73ffffffffffffffffffffffffffffffffffffffff166104df61034f565b73ffffffffffffffffffffffffffffffffffffffff1614610535576040517f08c379a000000000000000000000000000000000000000000000000000000000815260040161052c9061097b565b60405180910390fd5b600034905080600160008473ffffffffffffffffffffffffffffffffffffffff1673ffffffffffffffffffffffffffffffffffffffff168152602001908152602001600020600082825461058991906109d2565b925050819055508173ffffffffffffffffffffffffffffffffffffffff167f2da466a7b24304f47e87fa2e1e5a81b9831ce54fec19055ce277ca2f39ba42c4826040516105d6919061099b565b60405180910390a25050565b600033905090565b8047101561062d576040517f08c379a00000000000000000000000000000000000000000000000000000000081526004016106249061095b565b60405180910390fd5b60008273ffffffffffffffffffffffffffffffffffffffff1682604051610653906108eb565b60006040518083038185875af1925050503d8060008114610690576040519150601f19603f3d011682016040523d82523d6000602084013e610695565b606091505b50509050806106d9576040517f08c379a00000000000000000000000000000000000000000000000000000000081526004016106d09061093b565b60405180910390fd5b505050565b60008060009054906101000a900473ffffffffffffffffffffffffffffffffffffffff169050816000806101000a81548173ffffffffffffffffffffffffffffffffffffffff021916908373ffffffffffffffffffffffffffffffffffffffff1602179055508173ffffffffffffffffffffffffffffffffffffffff168173ffffffffffffffffffffffffffffffffffffffff167f8be0079c531659141344cd1fd0a4f28419497f9722a3daafe3b4186f6b6457e060405160405180910390a35050565b6000813590506107b181610b98565b92915050565b6000813590506107c681610baf565b92915050565b6000602082840312156107de57600080fd5b60006107ec848285016107a2565b91505092915050565b60006020828403121561080757600080fd5b6000610815848285016107b7565b91505092915050565b61082781610a28565b82525050565b600061083a6026836109c1565b915061084582610aa5565b604082019050919050565b600061085d603a836109c1565b915061086882610af4565b604082019050919050565b6000610880601d836109c1565b915061088b82610b43565b602082019050919050565b60006108a36020836109c1565b91506108ae82610b6c565b602082019050919050565b60006108c66000836109b6565b91506108d182610b95565b600082019050919050565b6108e581610a6c565b82525050565b60006108f6826108b9565b9150819050919050565b6000602082019050610915600083018461081e565b92915050565b600060208201905081810360008301526109348161082d565b9050919050565b6000602082019050818103600083015261095481610850565b9050919050565b6000602082019050818103600083015261097481610873565b9050919050565b6000602082019050818103600083015261099481610896565b9050919050565b60006020820190506109b060008301846108dc565b92915050565b600081905092915050565b600082825260208201905092915050565b60006109dd82610a6c565b91506109e883610a6c565b9250827fffffffffffffffffffffffffffffffffffffffffffffffffffffffffffffffff03821115610a1d57610a1c610a76565b5b828201905092915050565b6000610a3382610a4c565b9050919050565b6000610a4582610a4c565b9050919050565b600073ffffffffffffffffffffffffffffffffffffffff82169050919050565b6000819050919050565b7f4e487b7100000000000000000000000000000000000000000000000000000000600052601160045260246000fd5b7f4f776e61626c653a206e6577206f776e657220697320746865207a65726f206160008201527f6464726573730000000000000000000000000000000000000000000000000000602082015250565b7f416464726573733a20756e61626c6520746f2073656e642076616c75652c207260008201527f6563697069656e74206d61792068617665207265766572746564000000000000602082015250565b7f416464726573733a20696e73756666696369656e742062616c616e6365000000600082015250565b7f4f776e61626c653a2063616c6c6572206973206e6f7420746865206f776e6572600082015250565b50565b610ba181610a28565b8114610bac57600080fd5b50565b610bb881610a3a565b8114610bc357600080fd5b5056fea2646970667358221220b2a6db4c00e57e7ef608d5e81a53c60e6688cd2b85172cc39bb6858c6c6988ec64736f6c63430008040033",
  "linkReferences": {},
  "deployedLinkReferences": {}
}