{
  "_format": "hh-sol-artifact-1",
  "contractName": "Green",
  "sourceName": "contracts/Green.sol",
  "abi": [
    {
      "inputs": [],
      "stateMutability": "nonpayable",
      "type": "constructor"
    },
    {
      "anonymous": false,
      "inputs": [
        {
          "indexed": true,
          "internalType": "address",
          "name": "owner",
          "type": "address"
        },
        {
          "indexed": true,
          "internalType": "address",
          "name": "approved",
          "type": "address"
        },
        {
          "indexed": true,
          "internalType": "uint256",
          "name": "tokenId",
          "type": "uint256"
        }
      ],
      "name": "Approval",
      "type": "event"
    },
    {
      "anonymous": false,
      "inputs": [
        {
          "indexed": true,
          "internalType": "address",
          "name": "owner",
          "type": "address"
        },
        {
          "indexed": true,
          "internalType": "address",
          "name": "operator",
          "type": "address"
        },
        {
          "indexed": false,
          "internalType": "bool",
          "name": "approved",
          "type": "bool"
        }
      ],
      "name": "ApprovalForAll",
      "type": "event"
    },
    {
      "anonymous": false,
      "inputs": [
        {
          "indexed": true,
          "internalType": "address",
          "name": "previousOwner",
          "type": "address"
        },
        {
          "indexed": true,
          "internalType": "address",
          "name": "newOwner",
          "type": "address"
        }
      ],
      "name": "OwnershipTransferred",
      "type": "event"
    },
    {
      "anonymous": false,
      "inputs": [
        {
          "indexed": true,
          "internalType": "address",
          "name": "from",
          "type": "address"
        },
        {
          "indexed": true,
          "internalType": "address",
          "name": "to",
          "type": "address"
        },
        {
          "indexed": true,
          "internalType": "uint256",
          "name": "tokenId",
          "type": "uint256"
        }
      ],
      "name": "Transfer",
      "type": "event"
    },
    {
      "inputs": [],
      "name": "_baseTokenURI",
      "outputs": [
        {
          "internalType": "string",
          "name": "",
          "type": "string"
        }
      ],
      "stateMutability": "view",
      "type": "function"
    },
    {
      "inputs": [
        {
          "internalType": "address",
          "name": "to",
          "type": "address"
        },
        {
          "internalType": "uint256",
          "name": "tokenId",
          "type": "uint256"
        }
      ],
      "name": "approve",
      "outputs": [],
      "stateMutability": "nonpayable",
      "type": "function"
    },
    {
      "inputs": [
        {
          "internalType": "address",
          "name": "owner",
          "type": "address"
        }
      ],
      "name": "balanceOf",
      "outputs": [
        {
          "internalType": "uint256",
          "name": "",
          "type": "uint256"
        }
      ],
      "stateMutability": "view",
      "type": "function"
    },
    {
      "inputs": [
        {
          "internalType": "uint256",
          "name": "tokenId",
          "type": "uint256"
        }
      ],
      "name": "getApproved",
      "outputs": [
        {
          "internalType": "address",
          "name": "",
          "type": "address"
        }
      ],
      "stateMutability": "view",
      "type": "function"
    },
    {
      "inputs": [
        {
          "internalType": "address",
          "name": "owner",
          "type": "address"
        },
        {
          "internalType": "address",
          "name": "operator",
          "type": "address"
        }
      ],
      "name": "isApprovedForAll",
      "outputs": [
        {
          "internalType": "bool",
          "name": "",
          "type": "bool"
        }
      ],
      "stateMutability": "view",
      "type": "function"
    },
    {
      "inputs": [
        {
          "internalType": "address",
          "name": "_minter",
          "type": "address"
        }
      ],
      "name": "mintWinner",
      "outputs": [],
      "stateMutability": "nonpayable",
      "type": "function"
    },
    {
      "inputs": [],
      "name": "name",
      "outputs": [
        {
          "internalType": "string",
          "name": "",
          "type": "string"
        }
      ],
      "stateMutability": "view",
      "type": "function"
    },
    {
      "inputs": [],
      "name": "owner",
      "outputs": [
        {
          "internalType": "address",
          "name": "",
          "type": "address"
        }
      ],
      "stateMutability": "view",
      "type": "function"
    },
    {
      "inputs": [
        {
          "internalType": "uint256",
          "name": "tokenId",
          "type": "uint256"
        }
      ],
      "name": "ownerOf",
      "outputs": [
        {
          "internalType": "address",
          "name": "",
          "type": "address"
        }
      ],
      "stateMutability": "view",
      "type": "function"
    },
    {
      "inputs": [],
      "name": "renounceOwnership",
      "outputs": [],
      "stateMutability": "nonpayable",
      "type": "function"
    },
    {
      "inputs": [
        {
          "internalType": "address",
          "name": "from",
          "type": "address"
        },
        {
          "internalType": "address",
          "name": "to",
          "type": "address"
        },
        {
          "internalType": "uint256",
          "name": "tokenId",
          "type": "uint256"
        }
      ],
      "name": "safeTransferFrom",
      "outputs": [],
      "stateMutability": "nonpayable",
      "type": "function"
    },
    {
      "inputs": [
        {
          "internalType": "address",
          "name": "from",
          "type": "address"
        },
        {
          "internalType": "address",
          "name": "to",
          "type": "address"
        },
        {
          "internalType": "uint256",
          "name": "tokenId",
          "type": "uint256"
        },
        {
          "internalType": "bytes",
          "name": "_data",
          "type": "bytes"
        }
      ],
      "name": "safeTransferFrom",
      "outputs": [],
      "stateMutability": "nonpayable",
      "type": "function"
    },
    {
      "inputs": [
        {
          "internalType": "address",
          "name": "operator",
          "type": "address"
        },
        {
          "internalType": "bool",
          "name": "approved",
          "type": "bool"
        }
      ],
      "name": "setApprovalForAll",
      "outputs": [],
      "stateMutability": "nonpayable",
      "type": "function"
    },
    {
      "inputs": [
        {
          "internalType": "string",
          "name": "baseURI",
          "type": "string"
        }
      ],
      "name": "setBaseURI",
      "outputs": [],
      "stateMutability": "nonpayable",
      "type": "function"
    },
    {
      "inputs": [
        {
          "internalType": "bytes4",
          "name": "interfaceId",
          "type": "bytes4"
        }
      ],
      "name": "supportsInterface",
      "outputs": [
        {
          "internalType": "bool",
          "name": "",
          "type": "bool"
        }
      ],
      "stateMutability": "view",
      "type": "function"
    },
    {
      "inputs": [],
      "name": "symbol",
      "outputs": [
        {
          "internalType": "string",
          "name": "",
          "type": "string"
        }
      ],
      "stateMutability": "view",
      "type": "function"
    },
    {
      "inputs": [
        {
          "internalType": "uint256",
          "name": "index",
          "type": "uint256"
        }
      ],
      "name": "tokenByIndex",
      "outputs": [
        {
          "internalType": "uint256",
          "name": "",
          "type": "uint256"
        }
      ],
      "stateMutability": "view",
      "type": "function"
    },
    {
      "inputs": [
        {
          "internalType": "address",
          "name": "owner",
          "type": "address"
        },
        {
          "internalType": "uint256",
          "name": "index",
          "type": "uint256"
        }
      ],
      "name": "tokenOfOwnerByIndex",
      "outputs": [
        {
          "internalType": "uint256",
          "name": "",
          "type": "uint256"
        }
      ],
      "stateMutability": "view",
      "type": "function"
    },
    {
      "inputs": [
        {
          "internalType": "uint256",
          "name": "tokenId",
          "type": "uint256"
        }
      ],
      "name": "tokenURI",
      "outputs": [
        {
          "internalType": "string",
          "name": "",
          "type": "string"
        }
      ],
      "stateMutability": "view",
      "type": "function"
    },
    {
      "inputs": [],
      "name": "totalSupply",
      "outputs": [
        {
          "internalType": "uint256",
          "name": "",
          "type": "uint256"
        }
      ],
      "stateMutability": "view",
      "type": "function"
    },
    {
      "inputs": [
        {
          "internalType": "address",
          "name": "from",
          "type": "address"
        },
        {
          "internalType": "address",
          "name": "to",
          "type": "address"
        },
        {
          "internalType": "uint256",
          "name": "tokenId",
          "type": "uint256"
        }
      ],
      "name": "transferFrom",
      "outputs": [],
      "stateMutability": "nonpayable",
      "type": "function"
    },
    {
      "inputs": [
        {
          "internalType": "address",
          "name": "newOwner",
          "type": "address"
        }
      ],
      "name": "transferOwnership",
      "outputs": [],
      "stateMutability": "nonpayable",
      "type": "function"
    }
  ],
  "bytecode": "0x60806040526040518060800160405280605b8152602001620035ea605b9139600c908051906020019062000035929190620001d6565b503480156200004357600080fd5b506040518060400160405280600a81526020017f436f6d706c6578696f6e000000000000000000000000000000000000000000008152506040518060400160405280600781526020017f434f4d504c455800000000000000000000000000000000000000000000000000815250620000d0620000c46200010a60201b60201c565b6200011260201b60201c565b8160019080519060200190620000e8929190620001d6565b50806002908051906020019062000101929190620001d6565b505050620002eb565b600033905090565b60008060009054906101000a900473ffffffffffffffffffffffffffffffffffffffff169050816000806101000a81548173ffffffffffffffffffffffffffffffffffffffff021916908373ffffffffffffffffffffffffffffffffffffffff1602179055508173ffffffffffffffffffffffffffffffffffffffff168173ffffffffffffffffffffffffffffffffffffffff167f8be0079c531659141344cd1fd0a4f28419497f9722a3daafe3b4186f6b6457e060405160405180910390a35050565b828054620001e49062000286565b90600052602060002090601f01602090048101928262000208576000855562000254565b82601f106200022357805160ff191683800117855562000254565b8280016001018555821562000254579182015b828111156200025357825182559160200191906001019062000236565b5b50905062000263919062000267565b5090565b5b808211156200028257600081600090555060010162000268565b5090565b600060028204905060018216806200029f57607f821691505b60208210811415620002b657620002b5620002bc565b5b50919050565b7f4e487b7100000000000000000000000000000000000000000000000000000000600052602260045260246000fd5b6132ef80620002fb6000396000f3fe608060405234801561001057600080fd5b50600436106101425760003560e01c80636352211e116100b8578063a22cb4651161007c578063a22cb46514610375578063b88d4fde14610391578063c87b56dd146103ad578063cfc86f7b146103dd578063e985e9c5146103fb578063f2fde38b1461042b57610142565b80636352211e146102cf57806370a08231146102ff578063715018a61461032f5780638da5cb5b1461033957806395d89b411461035757610142565b806323b872dd1161010a57806323b872dd146101ff5780632f745c591461021b57806342842e0e1461024b5780634894d393146102675780634f6ccce71461028357806355f804b3146102b357610142565b806301ffc9a71461014757806306fdde0314610177578063081812fc14610195578063095ea7b3146101c557806318160ddd146101e1575b600080fd5b610161600480360381019061015c9190612429565b610447565b60405161016e919061283e565b60405180910390f35b61017f6104c1565b60405161018c9190612859565b60405180910390f35b6101af60048036038101906101aa91906124bc565b610553565b6040516101bc91906127d7565b60405180910390f35b6101df60048036038101906101da91906123ed565b6105d8565b005b6101e96106f0565b6040516101f69190612a9b565b60405180910390f35b610219600480360381019061021491906122e7565b6106fd565b005b610235600480360381019061023091906123ed565b61075d565b6040516102429190612a9b565b60405180910390f35b610265600480360381019061026091906122e7565b610802565b005b610281600480360381019061027c9190612282565b610822565b005b61029d600480360381019061029891906124bc565b6108b8565b6040516102aa9190612a9b565b60405180910390f35b6102cd60048036038101906102c8919061247b565b61094f565b005b6102e960048036038101906102e491906124bc565b6109e5565b6040516102f691906127d7565b60405180910390f35b61031960048036038101906103149190612282565b610a97565b6040516103269190612a9b565b60405180910390f35b610337610b4f565b005b610341610bd7565b60405161034e91906127d7565b60405180910390f35b61035f610c00565b60405161036c9190612859565b60405180910390f35b61038f600480360381019061038a91906123b1565b610c92565b005b6103ab60048036038101906103a69190612336565b610ca8565b005b6103c760048036038101906103c291906124bc565b610d0a565b6040516103d49190612859565b60405180910390f35b6103e5610d9e565b6040516103f29190612859565b60405180910390f35b610415600480360381019061041091906122ab565b610e2c565b604051610422919061283e565b60405180910390f35b61044560048036038101906104409190612282565b610ec0565b005b60007f780e9d63000000000000000000000000000000000000000000000000000000007bffffffffffffffffffffffffffffffffffffffffffffffffffffffff1916827bffffffffffffffffffffffffffffffffffffffffffffffffffffffff191614806104ba57506104b982610fb8565b5b9050919050565b6060600180546104d090612cb5565b80601f01602080910402602001604051908101604052809291908181526020018280546104fc90612cb5565b80156105495780601f1061051e57610100808354040283529160200191610549565b820191906000526020600020905b81548152906001019060200180831161052c57829003601f168201915b5050505050905090565b600061055e8261109a565b61059d576040517f08c379a0000000000000000000000000000000000000000000000000000000008152600401610594906129fb565b60405180910390fd5b6005600083815260200190815260200160002060009054906101000a900473ffffffffffffffffffffffffffffffffffffffff169050919050565b60006105e3826109e5565b90508073ffffffffffffffffffffffffffffffffffffffff168373ffffffffffffffffffffffffffffffffffffffff161415610654576040517f08c379a000000000000000000000000000000000000000000000000000000000815260040161064b90612a3b565b60405180910390fd5b8073ffffffffffffffffffffffffffffffffffffffff16610673611106565b73ffffffffffffffffffffffffffffffffffffffff1614806106a257506106a18161069c611106565b610e2c565b5b6106e1576040517f08c379a00000000000000000000000000000000000000000000000000000000081526004016106d89061297b565b60405180910390fd5b6106eb838361110e565b505050565b6000600980549050905090565b61070e610708611106565b826111c7565b61074d576040517f08c379a000000000000000000000000000000000000000000000000000000000815260040161074490612a5b565b60405180910390fd5b6107588383836112a5565b505050565b600061076883610a97565b82106107a9576040517f08c379a00000000000000000000000000000000000000000000000000000000081526004016107a09061287b565b60405180910390fd5b600760008473ffffffffffffffffffffffffffffffffffffffff1673ffffffffffffffffffffffffffffffffffffffff168152602001908152602001600020600083815260200190815260200160002054905092915050565b61081d83838360405180602001604052806000815250610ca8565b505050565b61082a611106565b73ffffffffffffffffffffffffffffffffffffffff16610848610bd7565b73ffffffffffffffffffffffffffffffffffffffff161461089e576040517f08c379a000000000000000000000000000000000000000000000000000000000815260040161089590612a1b565b60405180910390fd5b60006108a86106f0565b90506108b4828261150c565b5050565b60006108c26106f0565b8210610903576040517f08c379a00000000000000000000000000000000000000000000000000000000081526004016108fa90612a7b565b60405180910390fd5b6009828154811061093d577f4e487b7100000000000000000000000000000000000000000000000000000000600052603260045260246000fd5b90600052602060002001549050919050565b610957611106565b73ffffffffffffffffffffffffffffffffffffffff16610975610bd7565b73ffffffffffffffffffffffffffffffffffffffff16146109cb576040517f08c379a00000000000000000000000000000000000000000000000000000000081526004016109c290612a1b565b60405180910390fd5b80600b90805190602001906109e19291906120a6565b5050565b6000806003600084815260200190815260200160002060009054906101000a900473ffffffffffffffffffffffffffffffffffffffff169050600073ffffffffffffffffffffffffffffffffffffffff168173ffffffffffffffffffffffffffffffffffffffff161415610a8e576040517f08c379a0000000000000000000000000000000000000000000000000000000008152600401610a85906129bb565b60405180910390fd5b80915050919050565b60008073ffffffffffffffffffffffffffffffffffffffff168273ffffffffffffffffffffffffffffffffffffffff161415610b08576040517f08c379a0000000000000000000000000000000000000000000000000000000008152600401610aff9061299b565b60405180910390fd5b600460008373ffffffffffffffffffffffffffffffffffffffff1673ffffffffffffffffffffffffffffffffffffffff168152602001908152602001600020549050919050565b610b57611106565b73ffffffffffffffffffffffffffffffffffffffff16610b75610bd7565b73ffffffffffffffffffffffffffffffffffffffff1614610bcb576040517f08c379a0000000000000000000000000000000000000000000000000000000008152600401610bc290612a1b565b60405180910390fd5b610bd5600061152a565b565b60008060009054906101000a900473ffffffffffffffffffffffffffffffffffffffff16905090565b606060028054610c0f90612cb5565b80601f0160208091040260200160405190810160405280929190818152602001828054610c3b90612cb5565b8015610c885780601f10610c5d57610100808354040283529160200191610c88565b820191906000526020600020905b815481529060010190602001808311610c6b57829003601f168201915b5050505050905090565b610ca4610c9d611106565b83836115ee565b5050565b610cb9610cb3611106565b836111c7565b610cf8576040517f08c379a0000000000000000000000000000000000000000000000000000000008152600401610cef90612a5b565b60405180910390fd5b610d048484848461175b565b50505050565b6060600c8054610d1990612cb5565b80601f0160208091040260200160405190810160405280929190818152602001828054610d4590612cb5565b8015610d925780601f10610d6757610100808354040283529160200191610d92565b820191906000526020600020905b815481529060010190602001808311610d7557829003601f168201915b50505050509050919050565b600b8054610dab90612cb5565b80601f0160208091040260200160405190810160405280929190818152602001828054610dd790612cb5565b8015610e245780601f10610df957610100808354040283529160200191610e24565b820191906000526020600020905b815481529060010190602001808311610e0757829003601f168201915b505050505081565b6000600660008473ffffffffffffffffffffffffffffffffffffffff1673ffffffffffffffffffffffffffffffffffffffff16815260200190815260200160002060008373ffffffffffffffffffffffffffffffffffffffff1673ffffffffffffffffffffffffffffffffffffffff16815260200190815260200160002060009054906101000a900460ff16905092915050565b610ec8611106565b73ffffffffffffffffffffffffffffffffffffffff16610ee6610bd7565b73ffffffffffffffffffffffffffffffffffffffff1614610f3c576040517f08c379a0000000000000000000000000000000000000000000000000000000008152600401610f3390612a1b565b60405180910390fd5b600073ffffffffffffffffffffffffffffffffffffffff168173ffffffffffffffffffffffffffffffffffffffff161415610fac576040517f08c379a0000000000000000000000000000000000000000000000000000000008152600401610fa3906128bb565b60405180910390fd5b610fb58161152a565b50565b60007f80ac58cd000000000000000000000000000000000000000000000000000000007bffffffffffffffffffffffffffffffffffffffffffffffffffffffff1916827bffffffffffffffffffffffffffffffffffffffffffffffffffffffff1916148061108357507f5b5e139f000000000000000000000000000000000000000000000000000000007bffffffffffffffffffffffffffffffffffffffffffffffffffffffff1916827bffffffffffffffffffffffffffffffffffffffffffffffffffffffff1916145b806110935750611092826117b7565b5b9050919050565b60008073ffffffffffffffffffffffffffffffffffffffff166003600084815260200190815260200160002060009054906101000a900473ffffffffffffffffffffffffffffffffffffffff1673ffffffffffffffffffffffffffffffffffffffff1614159050919050565b600033905090565b816005600083815260200190815260200160002060006101000a81548173ffffffffffffffffffffffffffffffffffffffff021916908373ffffffffffffffffffffffffffffffffffffffff160217905550808273ffffffffffffffffffffffffffffffffffffffff16611181836109e5565b73ffffffffffffffffffffffffffffffffffffffff167f8c5be1e5ebec7d5bd14f71427d1e84f3dd0314c0f7b2291e5b200ac8c7c3b92560405160405180910390a45050565b60006111d28261109a565b611211576040517f08c379a00000000000000000000000000000000000000000000000000000000081526004016112089061295b565b60405180910390fd5b600061121c836109e5565b90508073ffffffffffffffffffffffffffffffffffffffff168473ffffffffffffffffffffffffffffffffffffffff16148061128b57508373ffffffffffffffffffffffffffffffffffffffff1661127384610553565b73ffffffffffffffffffffffffffffffffffffffff16145b8061129c575061129b8185610e2c565b5b91505092915050565b8273ffffffffffffffffffffffffffffffffffffffff166112c5826109e5565b73ffffffffffffffffffffffffffffffffffffffff161461131b576040517f08c379a0000000000000000000000000000000000000000000000000000000008152600401611312906128db565b60405180910390fd5b600073ffffffffffffffffffffffffffffffffffffffff168273ffffffffffffffffffffffffffffffffffffffff16141561138b576040517f08c379a00000000000000000000000000000000000000000000000000000000081526004016113829061291b565b60405180910390fd5b611396838383611821565b6113a160008261110e565b6001600460008573ffffffffffffffffffffffffffffffffffffffff1673ffffffffffffffffffffffffffffffffffffffff16815260200190815260200160002060008282546113f19190612bcb565b925050819055506001600460008473ffffffffffffffffffffffffffffffffffffffff1673ffffffffffffffffffffffffffffffffffffffff16815260200190815260200160002060008282546114489190612b75565b92505081905550816003600083815260200190815260200160002060006101000a81548173ffffffffffffffffffffffffffffffffffffffff021916908373ffffffffffffffffffffffffffffffffffffffff160217905550808273ffffffffffffffffffffffffffffffffffffffff168473ffffffffffffffffffffffffffffffffffffffff167fddf252ad1be2c89b69c2b068fc378daa952ba7f163c4a11628f55a4df523b3ef60405160405180910390a4611507838383611935565b505050565b61152682826040518060200160405280600081525061193a565b5050565b60008060009054906101000a900473ffffffffffffffffffffffffffffffffffffffff169050816000806101000a81548173ffffffffffffffffffffffffffffffffffffffff021916908373ffffffffffffffffffffffffffffffffffffffff1602179055508173ffffffffffffffffffffffffffffffffffffffff168173ffffffffffffffffffffffffffffffffffffffff167f8be0079c531659141344cd1fd0a4f28419497f9722a3daafe3b4186f6b6457e060405160405180910390a35050565b8173ffffffffffffffffffffffffffffffffffffffff168373ffffffffffffffffffffffffffffffffffffffff16141561165d576040517f08c379a00000000000000000000000000000000000000000000000000000000081526004016116549061293b565b60405180910390fd5b80600660008573ffffffffffffffffffffffffffffffffffffffff1673ffffffffffffffffffffffffffffffffffffffff16815260200190815260200160002060008473ffffffffffffffffffffffffffffffffffffffff1673ffffffffffffffffffffffffffffffffffffffff16815260200190815260200160002060006101000a81548160ff0219169083151502179055508173ffffffffffffffffffffffffffffffffffffffff168373ffffffffffffffffffffffffffffffffffffffff167f17307eab39ab6107e8899845ad3d59bd9653f200f220920489ca2b5937696c318360405161174e919061283e565b60405180910390a3505050565b6117668484846112a5565b61177284848484611995565b6117b1576040517f08c379a00000000000000000000000000000000000000000000000000000000081526004016117a89061289b565b60405180910390fd5b50505050565b60007f01ffc9a7000000000000000000000000000000000000000000000000000000007bffffffffffffffffffffffffffffffffffffffffffffffffffffffff1916827bffffffffffffffffffffffffffffffffffffffffffffffffffffffff1916149050919050565b61182c838383611b2c565b600073ffffffffffffffffffffffffffffffffffffffff168373ffffffffffffffffffffffffffffffffffffffff16141561186f5761186a81611b31565b6118ae565b8173ffffffffffffffffffffffffffffffffffffffff168373ffffffffffffffffffffffffffffffffffffffff16146118ad576118ac8382611b7a565b5b5b600073ffffffffffffffffffffffffffffffffffffffff168273ffffffffffffffffffffffffffffffffffffffff1614156118f1576118ec81611ce7565b611930565b8273ffffffffffffffffffffffffffffffffffffffff168273ffffffffffffffffffffffffffffffffffffffff161461192f5761192e8282611e2a565b5b5b505050565b505050565b6119448383611ea9565b6119516000848484611995565b611990576040517f08c379a00000000000000000000000000000000000000000000000000000000081526004016119879061289b565b60405180910390fd5b505050565b60006119b68473ffffffffffffffffffffffffffffffffffffffff16612083565b15611b1f578373ffffffffffffffffffffffffffffffffffffffff1663150b7a026119df611106565b8786866040518563ffffffff1660e01b8152600401611a0194939291906127f2565b602060405180830381600087803b158015611a1b57600080fd5b505af1925050508015611a4c57506040513d601f19601f82011682018060405250810190611a499190612452565b60015b611acf573d8060008114611a7c576040519150601f19603f3d011682016040523d82523d6000602084013e611a81565b606091505b50600081511415611ac7576040517f08c379a0000000000000000000000000000000000000000000000000000000008152600401611abe9061289b565b60405180910390fd5b805181602001fd5b63150b7a0260e01b7bffffffffffffffffffffffffffffffffffffffffffffffffffffffff1916817bffffffffffffffffffffffffffffffffffffffffffffffffffffffff191614915050611b24565b600190505b949350505050565b505050565b600980549050600a600083815260200190815260200160002081905550600981908060018154018082558091505060019003906000526020600020016000909190919091505550565b60006001611b8784610a97565b611b919190612bcb565b9050600060086000848152602001908152602001600020549050818114611c76576000600760008673ffffffffffffffffffffffffffffffffffffffff1673ffffffffffffffffffffffffffffffffffffffff168152602001908152602001600020600084815260200190815260200160002054905080600760008773ffffffffffffffffffffffffffffffffffffffff1673ffffffffffffffffffffffffffffffffffffffff168152602001908152602001600020600084815260200190815260200160002081905550816008600083815260200190815260200160002081905550505b6008600084815260200190815260200160002060009055600760008573ffffffffffffffffffffffffffffffffffffffff1673ffffffffffffffffffffffffffffffffffffffff16815260200190815260200160002060008381526020019081526020016000206000905550505050565b60006001600980549050611cfb9190612bcb565b90506000600a6000848152602001908152602001600020549050600060098381548110611d51577f4e487b7100000000000000000000000000000000000000000000000000000000600052603260045260246000fd5b906000526020600020015490508060098381548110611d99577f4e487b7100000000000000000000000000000000000000000000000000000000600052603260045260246000fd5b906000526020600020018190555081600a600083815260200190815260200160002081905550600a6000858152602001908152602001600020600090556009805480611e0e577f4e487b7100000000000000000000000000000000000000000000000000000000600052603160045260246000fd5b6001900381819060005260206000200160009055905550505050565b6000611e3583610a97565b905081600760008573ffffffffffffffffffffffffffffffffffffffff1673ffffffffffffffffffffffffffffffffffffffff168152602001908152602001600020600083815260200190815260200160002081905550806008600084815260200190815260200160002081905550505050565b600073ffffffffffffffffffffffffffffffffffffffff168273ffffffffffffffffffffffffffffffffffffffff161415611f19576040517f08c379a0000000000000000000000000000000000000000000000000000000008152600401611f10906129db565b60405180910390fd5b611f228161109a565b15611f62576040517f08c379a0000000000000000000000000000000000000000000000000000000008152600401611f59906128fb565b60405180910390fd5b611f6e60008383611821565b6001600460008473ffffffffffffffffffffffffffffffffffffffff1673ffffffffffffffffffffffffffffffffffffffff1681526020019081526020016000206000828254611fbe9190612b75565b92505081905550816003600083815260200190815260200160002060006101000a81548173ffffffffffffffffffffffffffffffffffffffff021916908373ffffffffffffffffffffffffffffffffffffffff160217905550808273ffffffffffffffffffffffffffffffffffffffff16600073ffffffffffffffffffffffffffffffffffffffff167fddf252ad1be2c89b69c2b068fc378daa952ba7f163c4a11628f55a4df523b3ef60405160405180910390a461207f60008383611935565b5050565b6000808273ffffffffffffffffffffffffffffffffffffffff163b119050919050565b8280546120b290612cb5565b90600052602060002090601f0160209004810192826120d4576000855561211b565b82601f106120ed57805160ff191683800117855561211b565b8280016001018555821561211b579182015b8281111561211a5782518255916020019190600101906120ff565b5b509050612128919061212c565b5090565b5b8082111561214557600081600090555060010161212d565b5090565b600061215c61215784612adb565b612ab6565b90508281526020810184848401111561217457600080fd5b61217f848285612c73565b509392505050565b600061219a61219584612b0c565b612ab6565b9050828152602081018484840111156121b257600080fd5b6121bd848285612c73565b509392505050565b6000813590506121d48161325d565b92915050565b6000813590506121e981613274565b92915050565b6000813590506121fe8161328b565b92915050565b6000815190506122138161328b565b92915050565b600082601f83011261222a57600080fd5b813561223a848260208601612149565b91505092915050565b600082601f83011261225457600080fd5b8135612264848260208601612187565b91505092915050565b60008135905061227c816132a2565b92915050565b60006020828403121561229457600080fd5b60006122a2848285016121c5565b91505092915050565b600080604083850312156122be57600080fd5b60006122cc858286016121c5565b92505060206122dd858286016121c5565b9150509250929050565b6000806000606084860312156122fc57600080fd5b600061230a868287016121c5565b935050602061231b868287016121c5565b925050604061232c8682870161226d565b9150509250925092565b6000806000806080858703121561234c57600080fd5b600061235a878288016121c5565b945050602061236b878288016121c5565b935050604061237c8782880161226d565b925050606085013567ffffffffffffffff81111561239957600080fd5b6123a587828801612219565b91505092959194509250565b600080604083850312156123c457600080fd5b60006123d2858286016121c5565b92505060206123e3858286016121da565b9150509250929050565b6000806040838503121561240057600080fd5b600061240e858286016121c5565b925050602061241f8582860161226d565b9150509250929050565b60006020828403121561243b57600080fd5b6000612449848285016121ef565b91505092915050565b60006020828403121561246457600080fd5b600061247284828501612204565b91505092915050565b60006020828403121561248d57600080fd5b600082013567ffffffffffffffff8111156124a757600080fd5b6124b384828501612243565b91505092915050565b6000602082840312156124ce57600080fd5b60006124dc8482850161226d565b91505092915050565b6124ee81612bff565b82525050565b6124fd81612c11565b82525050565b600061250e82612b3d565b6125188185612b53565b9350612528818560208601612c82565b61253181612da5565b840191505092915050565b600061254782612b48565b6125518185612b64565b9350612561818560208601612c82565b61256a81612da5565b840191505092915050565b6000612582602b83612b64565b915061258d82612db6565b604082019050919050565b60006125a5603283612b64565b91506125b082612e05565b604082019050919050565b60006125c8602683612b64565b91506125d382612e54565b604082019050919050565b60006125eb602583612b64565b91506125f682612ea3565b604082019050919050565b600061260e601c83612b64565b915061261982612ef2565b602082019050919050565b6000612631602483612b64565b915061263c82612f1b565b604082019050919050565b6000612654601983612b64565b915061265f82612f6a565b602082019050919050565b6000612677602c83612b64565b915061268282612f93565b604082019050919050565b600061269a603883612b64565b91506126a582612fe2565b604082019050919050565b60006126bd602a83612b64565b91506126c882613031565b604082019050919050565b60006126e0602983612b64565b91506126eb82613080565b604082019050919050565b6000612703602083612b64565b915061270e826130cf565b602082019050919050565b6000612726602c83612b64565b9150612731826130f8565b604082019050919050565b6000612749602083612b64565b915061275482613147565b602082019050919050565b600061276c602183612b64565b915061277782613170565b604082019050919050565b600061278f603183612b64565b915061279a826131bf565b604082019050919050565b60006127b2602c83612b64565b91506127bd8261320e565b604082019050919050565b6127d181612c69565b82525050565b60006020820190506127ec60008301846124e5565b92915050565b600060808201905061280760008301876124e5565b61281460208301866124e5565b61282160408301856127c8565b81810360608301526128338184612503565b905095945050505050565b600060208201905061285360008301846124f4565b92915050565b60006020820190508181036000830152612873818461253c565b905092915050565b6000602082019050818103600083015261289481612575565b9050919050565b600060208201905081810360008301526128b481612598565b9050919050565b600060208201905081810360008301526128d4816125bb565b9050919050565b600060208201905081810360008301526128f4816125de565b9050919050565b6000602082019050818103600083015261291481612601565b9050919050565b6000602082019050818103600083015261293481612624565b9050919050565b6000602082019050818103600083015261295481612647565b9050919050565b600060208201905081810360008301526129748161266a565b9050919050565b600060208201905081810360008301526129948161268d565b9050919050565b600060208201905081810360008301526129b4816126b0565b9050919050565b600060208201905081810360008301526129d4816126d3565b9050919050565b600060208201905081810360008301526129f4816126f6565b9050919050565b60006020820190508181036000830152612a1481612719565b9050919050565b60006020820190508181036000830152612a348161273c565b9050919050565b60006020820190508181036000830152612a548161275f565b9050919050565b60006020820190508181036000830152612a7481612782565b9050919050565b60006020820190508181036000830152612a94816127a5565b9050919050565b6000602082019050612ab060008301846127c8565b92915050565b6000612ac0612ad1565b9050612acc8282612ce7565b919050565b6000604051905090565b600067ffffffffffffffff821115612af657612af5612d76565b5b612aff82612da5565b9050602081019050919050565b600067ffffffffffffffff821115612b2757612b26612d76565b5b612b3082612da5565b9050602081019050919050565b600081519050919050565b600081519050919050565b600082825260208201905092915050565b600082825260208201905092915050565b6000612b8082612c69565b9150612b8b83612c69565b9250827fffffffffffffffffffffffffffffffffffffffffffffffffffffffffffffffff03821115612bc057612bbf612d18565b5b828201905092915050565b6000612bd682612c69565b9150612be183612c69565b925082821015612bf457612bf3612d18565b5b828203905092915050565b6000612c0a82612c49565b9050919050565b60008115159050919050565b60007fffffffff0000000000000000000000000000000000000000000000000000000082169050919050565b600073ffffffffffffffffffffffffffffffffffffffff82169050919050565b6000819050919050565b82818337600083830152505050565b60005b83811015612ca0578082015181840152602081019050612c85565b83811115612caf576000848401525b50505050565b60006002820490506001821680612ccd57607f821691505b60208210811415612ce157612ce0612d47565b5b50919050565b612cf082612da5565b810181811067ffffffffffffffff82111715612d0f57612d0e612d76565b5b80604052505050565b7f4e487b7100000000000000000000000000000000000000000000000000000000600052601160045260246000fd5b7f4e487b7100000000000000000000000000000000000000000000000000000000600052602260045260246000fd5b7f4e487b7100000000000000000000000000000000000000000000000000000000600052604160045260246000fd5b6000601f19601f8301169050919050565b7f455243373231456e756d657261626c653a206f776e657220696e646578206f7560008201527f74206f6620626f756e6473000000000000000000000000000000000000000000602082015250565b7f4552433732313a207472616e7366657220746f206e6f6e20455243373231526560008201527f63656976657220696d706c656d656e7465720000000000000000000000000000602082015250565b7f4f776e61626c653a206e6577206f776e657220697320746865207a65726f206160008201527f6464726573730000000000000000000000000000000000000000000000000000602082015250565b7f4552433732313a207472616e736665722066726f6d20696e636f72726563742060008201527f6f776e6572000000000000000000000000000000000000000000000000000000602082015250565b7f4552433732313a20746f6b656e20616c7265616479206d696e74656400000000600082015250565b7f4552433732313a207472616e7366657220746f20746865207a65726f2061646460008201527f7265737300000000000000000000000000000000000000000000000000000000602082015250565b7f4552433732313a20617070726f766520746f2063616c6c657200000000000000600082015250565b7f4552433732313a206f70657261746f7220717565727920666f72206e6f6e657860008201527f697374656e7420746f6b656e0000000000000000000000000000000000000000602082015250565b7f4552433732313a20617070726f76652063616c6c6572206973206e6f74206f7760008201527f6e6572206e6f7220617070726f76656420666f7220616c6c0000000000000000602082015250565b7f4552433732313a2062616c616e636520717565727920666f7220746865207a6560008201527f726f206164647265737300000000000000000000000000000000000000000000602082015250565b7f4552433732313a206f776e657220717565727920666f72206e6f6e657869737460008201527f656e7420746f6b656e0000000000000000000000000000000000000000000000602082015250565b7f4552433732313a206d696e7420746f20746865207a65726f2061646472657373600082015250565b7f4552433732313a20617070726f76656420717565727920666f72206e6f6e657860008201527f697374656e7420746f6b656e0000000000000000000000000000000000000000602082015250565b7f4f776e61626c653a2063616c6c6572206973206e6f7420746865206f776e6572600082015250565b7f4552433732313a20617070726f76616c20746f2063757272656e74206f776e6560008201527f7200000000000000000000000000000000000000000000000000000000000000602082015250565b7f4552433732313a207472616e736665722063616c6c6572206973206e6f74206f60008201527f776e6572206e6f7220617070726f766564000000000000000000000000000000602082015250565b7f455243373231456e756d657261626c653a20676c6f62616c20696e646578206f60008201527f7574206f6620626f756e64730000000000000000000000000000000000000000602082015250565b61326681612bff565b811461327157600080fd5b50565b61327d81612c11565b811461328857600080fd5b50565b61329481612c1d565b811461329f57600080fd5b50565b6132ab81612c69565b81146132b657600080fd5b5056fea2646970667358221220f312d0b7d9eac352de7a3cd79b74f5fdf3c2f4706e386fed1e88284de89734ea64736f6c6343000804003368747470733a2f2f676174657761792e70696e6174612e636c6f75642f697066732f516d4e65695a785a545a486b557541483145555a746744585a6366587239506f4e6b3157465958646d434e5972782f477265656e2e6a736f6e",
  "linkReferences": {},
  "deployedLinkReferences": {}
}